{
  "transactions": [
    {
      "hash": "0x775e719fae28a81b935d28b7814641845b6307f808bdff460b70e56b914d9e07",
      "transactionType": "CALL",
      "contractName": null,
      "contractAddress": "0x5c18f5a34531726702ee615dff6620c7fef7cf6b",
      "function": "delegate(address)",
      "arguments": [
        "0x36a83a4450744f4F9988c9Bc46cC556Ba5bFD2dF"
      ],
      "transaction": {
        "from": "0x36a83a4450744f4f9988c9bc46cc556ba5bfd2df",
        "to": "0x5c18f5a34531726702ee615dff6620c7fef7cf6b",
        "gas": "0x7beda",
        "value": "0x0",
        "input": "0x5c19a95c00000000000000000000000036a83a4450744f4f9988c9bc46cc556ba5bfd2df",
        "nonce": "0x196",
        "chainId": "0x190f1b41"
      },
      "additionalContracts": [],
      "isFixedGasLimit": false
    },
    {
      "hash": "0x9f5380ca2290c12726078333bdc63b44a9a2684a0ac770bfc56a97aa7b327173",
      "transactionType": "CALL",
      "contractName": null,
      "contractAddress": "0xa67483a927ee24169361311037ad77dbd1a6e64b",
      "function": "depositCollateralFromPAS()",
      "arguments": [],
      "transaction": {
        "from": "0x36a83a4450744f4f9988c9bc46cc556ba5bfd2df",
        "to": "0xa67483a927ee24169361311037ad77dbd1a6e64b",
        "gas": "0xf55b9",
        "value": "0x1bc16d674ec80000",
        "input": "0x080d7f89",
        "nonce": "0x197",
        "chainId": "0x190f1b41"
      },
      "additionalContracts": [],
      "isFixedGasLimit": false
    },
    {
      "hash": "0x80edbebdf0c93d0adb3294f1f2a4011185969f32903247f4ee16a31095e7c762",
      "transactionType": "CALL",
      "contractName": null,
      "contractAddress": "0x04f5ec4aaeda80263615a7fe40ea260aa690dc14",
      "function": "propose(address[],uint256[],bytes[],string)",
      "arguments": [
        "[0x9ca3cB29ff314324Cf9e94Ff966C3e307B8eE525, 0x9ca3cB29ff314324Cf9e94Ff966C3e307B8eE525, 0x9ca3cB29ff314324Cf9e94Ff966C3e307B8eE525]",
        "[0, 0, 0]",
        "[0x25c471a0000000000000000000000000000000000000000000000000000000000000000400000000000000000000000036a83a4450744f4f9988c9bc46cc556ba5bfd2df0000000000000000000000000000000000000000000000000000000000000000, 0x25c471a0000000000000000000000000000000000000000000000000000000000000000200000000000000000000000036a83a4450744f4f9988c9bc46cc556ba5bfd2df0000000000000000000000000000000000000000000000000000000000000000, 0x25c471a0000000000000000000000000000000000000000000000000000000000000000900000000000000000000000036a83a4450744f4f9988c9bc46cc556ba5bfd2df0000000000000000000000000000000000000000000000000000000000000000]",
        "BilateralProof: Grant MINTER RISK_ADMIN RELAY_CALLER to deployer for bilateral async proof"
      ],
      "transaction": {
        "from": "0x36a83a4450744f4f9988c9bc46cc556ba5bfd2df",
        "to": "0x04f5ec4aaeda80263615a7fe40ea260aa690dc14",
        "gas": "0x662ab",
        "value": "0x0",
        "input": "0x7d5e81e200000000000000000000000000000000000000000000000000000000000000800000000000000000000000000000000000000000000000000000000000000100000000000000000000000000000000000000000000000000000000000000018000000000000000000000000000000000000000000000000000000000000003e000000000000000000000000000000000000000000000000000000000000000030000000000000000000000009ca3cb29ff314324cf9e94ff966c3e307b8ee5250000000000000000000000009ca3cb29ff314324cf9e94ff966c3e307b8ee5250000000000000000000000009ca3cb29ff314324cf9e94ff966c3e307b8ee525000000000000000000000000000000000000000000000000000000000000000300000000000000000000000000000000000000000000000000000000000000000000000000000000000000000000000000000000000000000000000000000000000000000000000000000000000000000000000000000000000000000000000000000000000000000000000000000000000000000000000000000000000000030000000000000000000000000000000000000000000000000000000000000060000000000000000000000000000000000000000000000000000000000000010000000000000000000000000000000000000000000000000000000000000001a0000000000000000000000000000000000000000000000000000000000000006425c471a0000000000000000000000000000000000000000000000000000000000000000400000000000000000000000036a83a4450744f4f9988c9bc46cc556ba5bfd2df000000000000000000000000000000000000000000000000000000000000000000000000000000000000000000000000000000000000000000000000000000000000000000000000000000000000000000000000000000000000006425c471a0000000000000000000000000000000000000000000000000000000000000000200000000000000000000000036a83a4450744f4f9988c9bc46cc556ba5bfd2df000000000000000000000000000000000000000000000000000000000000000000000000000000000000000000000000000000000000000000000000000000000000000000000000000000000000000000000000000000000000006425c471a0000000000000000000000000000000000000000000000000000000000000000900000000000000000000000036a83a4450744f4f9988c9bc46cc556ba5bfd2df000000000000000000000000000000000000000000000000000000000000000000000000000000000000000000000000000000000000000000000000000000000000000000000000000000000000000000000000000000000000005a42696c61746572616c50726f6f663a204772616e74204d494e544552205249534b5f41444d494e2052454c41595f43414c4c455220746f206465706c6f79657220666f722062696c61746572616c206173796e632070726f6f66000000000000",
        "nonce": "0x198",
        "chainId": "0x190f1b41"
      },
      "additionalContracts": [],
      "isFixedGasLimit": false
    }
  ],
  "receipts": [
    {
      "status": "0x1",
      "cumulativeGasUsed": "0x0",
      "logs": [
        {
          "address": "0x5c18f5a34531726702ee615dff6620c7fef7cf6b",
          "topics": [
            "0x3134e8a2e6d97e929a7e54011ea5485d7d196dd5f0ba4d4ef95803e8e3fc257f",
            "0x00000000000000000000000036a83a4450744f4f9988c9bc46cc556ba5bfd2df",
            "0x0000000000000000000000000000000000000000000000000000000000000000",
            "0x00000000000000000000000036a83a4450744f4f9988c9bc46cc556ba5bfd2df"
          ],
          "data": "0x",
          "blockHash": "0x70f760e73b9bd1ac0a3ea3e594e48c9f546bb7bc37bf9d9a35267b15d9cea6f8",
          "blockNumber": "0x64a299",
          "transactionHash": "0x775e719fae28a81b935d28b7814641845b6307f808bdff460b70e56b914d9e07",
          "transactionIndex": "0x4",
          "logIndex": "0x1e",
          "removed": false
        },
        {
          "address": "0x5c18f5a34531726702ee615dff6620c7fef7cf6b",
          "topics": [
            "0xdec2bacdd2f05b59de34da9b523dff8be42e5e38e818c82fdb0bae774387a724",
            "0x00000000000000000000000036a83a4450744f4f9988c9bc46cc556ba5bfd2df"
          ],
          "data": "0x000000000000000000000000000000000000000000000000000000000000000000000000000000000000000000000000000000000000d3c21bcecceda1000000",
          "blockHash": "0x70f760e73b9bd1ac0a3ea3e594e48c9f546bb7bc37bf9d9a35267b15d9cea6f8",
          "blockNumber": "0x64a299",
          "transactionHash": "0x775e719fae28a81b935d28b7814641845b6307f808bdff460b70e56b914d9e07",
          "transactionIndex": "0x4",
          "logIndex": "0x1f",
          "removed": false
        }
      ],
      "logsBloom": "0x00000000000000000000000000000000000020000000000000000000000000000000000000000200000010000000000000020000000000000000000000000000000000000000000000000000000000000000000000000000000000000000000000000000020000200040000000000800000000000000000000000000000000000000000000000000000000000000000000000000400000000000000100000000040000000000000000000000000000000000000000000000000000000000000000000000000000000000000000000000000000000000000000000040000020004000000000000000000000000000000000000000000000000000000001000000",
      "type": "0x0",
      "transactionHash": "0x775e719fae28a81b935d28b7814641845b6307f808bdff460b70e56b914d9e07",
      "transactionIndex": "0x4",
      "blockHash": "0x70f760e73b9bd1ac0a3ea3e594e48c9f546bb7bc37bf9d9a35267b15d9cea6f8",
      "blockNumber": "0x64a299",
      "gasUsed": "0xf8e3",
      "effectiveGasPrice": "0xe8d4a51000",
      "from": "0x36a83a4450744f4f9988c9bc46cc556ba5bfd2df",
      "to": "0x5c18f5a34531726702ee615dff6620c7fef7cf6b",
      "contractAddress": null
    },
    {
      "status": "0x1",
      "cumulativeGasUsed": "0x0",
      "logs": [
        {
          "address": "0xa448d713f12f872d883536bac386175ed5a346f0",
          "topics": [
            "0xddf252ad1be2c89b69c2b068fc378daa952ba7f163c4a11628f55a4df523b3ef",
            "0x0000000000000000000000000000000000000000000000000000000000000000",
            "0x000000000000000000000000a67483a927ee24169361311037ad77dbd1a6e64b"
          ],
          "data": "0x0000000000000000000000000000000000000000000000001bc16d674ec80000",
          "blockHash": "0x719e94277eea1b2264c15a7ed071c9029317fe71f71766ba02e8fc8fef9b55c7",
          "blockNumber": "0x64a29a",
          "transactionHash": "0x9f5380ca2290c12726078333bdc63b44a9a2684a0ac770bfc56a97aa7b327173",
          "transactionIndex": "0x2",
          "logIndex": "0x7",
          "removed": false
        },
        {
          "address": "0xa448d713f12f872d883536bac386175ed5a346f0",
          "topics": [
            "0x4700c1726b4198077cd40320a32c45265a1910521eb0ef713dd1d8412413d7fc",
            "0x000000000000000000000000a67483a927ee24169361311037ad77dbd1a6e64b"
          ],
          "data": "0x0000000000000000000000000000000000000000000000001bc16d674ec80000",
          "blockHash": "0x719e94277eea1b2264c15a7ed071c9029317fe71f71766ba02e8fc8fef9b55c7",
          "blockNumber": "0x64a29a",
          "transactionHash": "0x9f5380ca2290c12726078333bdc63b44a9a2684a0ac770bfc56a97aa7b327173",
          "transactionIndex": "0x2",
          "logIndex": "0x8",
          "removed": false
        },
        {
          "address": "0xa448d713f12f872d883536bac386175ed5a346f0",
          "topics": [
            "0x8c5be1e5ebec7d5bd14f71427d1e84f3dd0314c0f7b2291e5b200ac8c7c3b925",
            "0x000000000000000000000000a67483a927ee24169361311037ad77dbd1a6e64b",
            "0x000000000000000000000000711f0e7cca499e711ac963a88405563c660dc33b"
          ],
          "data": "0x0000000000000000000000000000000000000000000000001bc16d674ec80000",
          "blockHash": "0x719e94277eea1b2264c15a7ed071c9029317fe71f71766ba02e8fc8fef9b55c7",
          "blockNumber": "0x64a29a",
          "transactionHash": "0x9f5380ca2290c12726078333bdc63b44a9a2684a0ac770bfc56a97aa7b327173",
          "transactionIndex": "0x2",
          "logIndex": "0x9",
          "removed": false
        },
        {
          "address": "0xa448d713f12f872d883536bac386175ed5a346f0",
          "topics": [
            "0xddf252ad1be2c89b69c2b068fc378daa952ba7f163c4a11628f55a4df523b3ef",
            "0x000000000000000000000000a67483a927ee24169361311037ad77dbd1a6e64b",
            "0x000000000000000000000000711f0e7cca499e711ac963a88405563c660dc33b"
          ],
          "data": "0x0000000000000000000000000000000000000000000000001bc16d674ec80000",
          "blockHash": "0x719e94277eea1b2264c15a7ed071c9029317fe71f71766ba02e8fc8fef9b55c7",
          "blockNumber": "0x64a29a",
          "transactionHash": "0x9f5380ca2290c12726078333bdc63b44a9a2684a0ac770bfc56a97aa7b327173",
          "transactionIndex": "0x2",
          "logIndex": "0xa",
          "removed": false
        },
        {
          "address": "0x711f0e7cca499e711ac963a88405563c660dc33b",
          "topics": [
            "0x3b04f593fa2fe63bcf8f1edd464dfd21124f3a53a11aecb27fcef01e129a0e2a",
            "0x00000000000000000000000036a83a4450744f4f9988c9bc46cc556ba5bfd2df",
            "0xc5ae9df60177d4a26b91d35d22540202bb7a523b0cda7565f3d6aaf19367ea07"
          ],
          "data": "0x0000000000000000000000000000000000000000000000001bc16d674ec80000",
          "blockHash": "0x719e94277eea1b2264c15a7ed071c9029317fe71f71766ba02e8fc8fef9b55c7",
          "blockNumber": "0x64a29a",
          "transactionHash": "0x9f5380ca2290c12726078333bdc63b44a9a2684a0ac770bfc56a97aa7b327173",
          "transactionIndex": "0x2",
          "logIndex": "0xb",
          "removed": false
        },
        {
          "address": "0xa67483a927ee24169361311037ad77dbd1a6e64b",
          "topics": [
            "0x225996f57ae32a89660e867a96ec7abc869264d4169f6a2cdee5fdb55e1390b7",
            "0x00000000000000000000000036a83a4450744f4f9988c9bc46cc556ba5bfd2df"
          ],
          "data": "0x0000000000000000000000000000000000000000000000001bc16d674ec80000",
          "blockHash": "0x719e94277eea1b2264c15a7ed071c9029317fe71f71766ba02e8fc8fef9b55c7",
          "blockNumber": "0x64a29a",
          "transactionHash": "0x9f5380ca2290c12726078333bdc63b44a9a2684a0ac770bfc56a97aa7b327173",
          "transactionIndex": "0x2",
          "logIndex": "0xc",
          "removed": false
        }
      ],
      "logsBloom": "0x00000000001108000000000000000000000000000000000000000000000000000000000000000000000000000080000000000000000000000000000004200000000000000000000000010008000800000000000000010000000000000000000000000000020000000000000002000804000000000000020000000010800000000001000000000000000420000000000200004000000000008020004100000000020000000000000008000000100000000000000000000000000000000200000000002002000000000000000000000000010000000000000000200040000020000010000000000000000000000000000000000000000000000000000001000000",
      "type": "0x0",
      "transactionHash": "0x9f5380ca2290c12726078333bdc63b44a9a2684a0ac770bfc56a97aa7b327173",
      "transactionIndex": "0x2",
      "blockHash": "0x719e94277eea1b2264c15a7ed071c9029317fe71f71766ba02e8fc8fef9b55c7",
      "blockNumber": "0x64a29a",
      "gasUsed": "0x1a41d",
      "effectiveGasPrice": "0xe8d4a51000",
      "from": "0x36a83a4450744f4f9988c9bc46cc556ba5bfd2df",
      "to": "0xa67483a927ee24169361311037ad77dbd1a6e64b",
      "contractAddress": null
    },
    {
      "status": "0x1",
      "cumulativeGasUsed": "0x0",
      "logs": [
        {
          "address": "0x04f5ec4aaeda80263615a7fe40ea260aa690dc14",
          "topics": [
            "0x7d84a6263ae0d98d3329bd7b46bb4e8d6f98cd35a7adb45c274c8b7fd5ebd5e0"
          ],
          "data": "0x823fced0a085584d57548cdedcaaee23a71d6ff0bbb68d6a11f9c046efd6d50400000000000000000000000036a83a4450744f4f9988c9bc46cc556ba5bfd2df000000000000000000000000000000000000000000000000000000000000012000000000000000000000000000000000000000000000000000000000000001a0000000000000000000000000000000000000000000000000000000000000022000000000000000000000000000000000000000000000000000000000000003000000000000000000000000000000000000000000000000000000000069bc80210000000000000000000000000000000000000000000000000000000069bc814d000000000000000000000000000000000000000000000000000000000000056000000000000000000000000000000000000000000000000000000000000000030000000000000000000000009ca3cb29ff314324cf9e94ff966c3e307b8ee5250000000000000000000000009ca3cb29ff314324cf9e94ff966c3e307b8ee5250000000000000000000000009ca3cb29ff314324cf9e94ff966c3e307b8ee525000000000000000000000000000000000000000000000000000000000000000300000000000000000000000000000000000000000000000000000000000000000000000000000000000000000000000000000000000000000000000000000000000000000000000000000000000000000000000000000000000000000000000000000000000000000000000000000000000000000000000000000000000000030000000000000000000000000000000000000000000000000000000000000060000000000000000000000000000000000000000000000000000000000000008000000000000000000000000000000000000000000000000000000000000000a000000000000000000000000000000000000000000000000000000000000000000000000000000000000000000000000000000000000000000000000000000000000000000000000000000000000000000000000000000000000000000000000000000000000000000000000000000000000000000000000000000000000000030000000000000000000000000000000000000000000000000000000000000060000000000000000000000000000000000000000000000000000000000000010000000000000000000000000000000000000000000000000000000000000001a0000000000000000000000000000000000000000000000000000000000000006425c471a0000000000000000000000000000000000000000000000000000000000000000400000000000000000000000036a83a4450744f4f9988c9bc46cc556ba5bfd2df000000000000000000000000000000000000000000000000000000000000000000000000000000000000000000000000000000000000000000000000000000000000000000000000000000000000000000000000000000000000006425c471a0000000000000000000000000000000000000000000000000000000000000000200000000000000000000000036a83a4450744f4f9988c9bc46cc556ba5bfd2df000000000000000000000000000000000000000000000000000000000000000000000000000000000000000000000000000000000000000000000000000000000000000000000000000000000000000000000000000000000000006425c471a0000000000000000000000000000000000000000000000000000000000000000900000000000000000000000036a83a4450744f4f9988c9bc46cc556ba5bfd2df000000000000000000000000000000000000000000000000000000000000000000000000000000000000000000000000000000000000000000000000000000000000000000000000000000000000000000000000000000000000005a42696c61746572616c50726f6f663a204772616e74204d494e544552205249534b5f41444d494e2052454c41595f43414c4c455220746f206465706c6f79657220666f722062696c61746572616c206173796e632070726f6f66000000000000",
          "blockHash": "0x47d7a5afed84bc0876432cbe8ddbaf34be4e98ec44de36f17a6e682c5a56fa0f",
          "blockNumber": "0x64a29b",
          "transactionHash": "0x80edbebdf0c93d0adb3294f1f2a4011185969f32903247f4ee16a31095e7c762",
          "transactionIndex": "0x2",
          "logIndex": "0x5",
          "removed": false
        }
      ],
      "logsBloom": "0x00002000000000000000000000000000000000000000000000000000000000000000000000000000000000000000000000000000000000000000000000000000000000000002000000000000000000000040000000000000000000000000000000000000000000000000000000000000000000000000000000000000000000000000000000000000000000000000000000000000000000000000000000010000080000000000000000000000000000000000000000000000000000000000000200000000000000000000000000000000000000000000000000000000000000000000000000000000000000000000000000000000000000000000000000000000",
      "type": "0x0",
      "transactionHash": "0x80edbebdf0c93d0adb3294f1f2a4011185969f32903247f4ee16a31095e7c762",
      "transactionIndex": "0x2",
      "blockHash": "0x47d7a5afed84bc0876432cbe8ddbaf34be4e98ec44de36f17a6e682c5a56fa0f",
      "blockNumber": "0x64a29b",
      "gasUsed": "0x6c8b",
      "effectiveGasPrice": "0xe8d4a51000",
      "from": "0x36a83a4450744f4f9988c9bc46cc556ba5bfd2df",
      "to": "0x04f5ec4aaeda80263615a7fe40ea260aa690dc14",
      "contractAddress": null
    }
  ],
  "libraries": [],
  "pending": [],
  "returns": {},
  "timestamp": 1773961255440,
  "chain": 420420417,
  "commit": "30e8c3e"
}