{
  "transactions": [
    {
      "hash": "0x79a18e031475158a1a9ca89e8ceda452226ecdbaa16259166e07d4f8a357c2c7",
      "transactionType": "CALL",
      "contractName": null,
      "contractAddress": "0x9d6d874413c72284514d5511a810dceedab75a11",
      "function": "delegate(address)",
      "arguments": [
        "0x36a83a4450744f4F9988c9Bc46cC556Ba5bFD2dF"
      ],
      "transaction": {
        "from": "0x36a83a4450744f4f9988c9bc46cc556ba5bfd2df",
        "to": "0x9d6d874413c72284514d5511a810dceedab75a11",
        "value": "0x0",
        "input": "0x5c19a95c00000000000000000000000036a83a4450744f4f9988c9bc46cc556ba5bfd2df",
        "nonce": "0x144",
        "chainId": "0x190f1b41"
      },
      "additionalContracts": [],
      "isFixedGasLimit": false
    },
    {
      "hash": "0x6abdb0c6172aa16138b09c27b0576d38acfb71e7b1c2ed9c8d8d1040b044962c",
      "transactionType": "CALL",
      "contractName": null,
      "contractAddress": "0xc6dc173de67ff347c864d4f26a96c5e725099394",
      "function": "depositCollateralFromPAS()",
      "arguments": [],
      "transaction": {
        "from": "0x36a83a4450744f4f9988c9bc46cc556ba5bfd2df",
        "to": "0xc6dc173de67ff347c864d4f26a96c5e725099394",
        "value": "0x1bc16d674ec80000",
        "input": "0x080d7f89",
        "nonce": "0x145",
        "chainId": "0x190f1b41"
      },
      "additionalContracts": [],
      "isFixedGasLimit": false
    },
    {
      "hash": "0x805c24cd10ec4bcff744df20b1d9caf49d0d2382666f4186bcb23af29ed1f550",
      "transactionType": "CALL",
      "contractName": null,
      "contractAddress": "0xd8ba49b5d6e3df55b7a4424e1f6d0b3c22625220",
      "function": "propose(address[],uint256[],bytes[],string)",
      "arguments": [
        "[0xc7F5871c0223eE42A858b54a679364c92C8CB0E8, 0xc7F5871c0223eE42A858b54a679364c92C8CB0E8, 0xc7F5871c0223eE42A858b54a679364c92C8CB0E8]",
        "[0, 0, 0]",
        "[0x25c471a0000000000000000000000000000000000000000000000000000000000000000400000000000000000000000036a83a4450744f4f9988c9bc46cc556ba5bfd2df0000000000000000000000000000000000000000000000000000000000000000, 0x25c471a0000000000000000000000000000000000000000000000000000000000000000200000000000000000000000036a83a4450744f4f9988c9bc46cc556ba5bfd2df0000000000000000000000000000000000000000000000000000000000000000, 0x25c471a0000000000000000000000000000000000000000000000000000000000000000900000000000000000000000036a83a4450744f4f9988c9bc46cc556ba5bfd2df0000000000000000000000000000000000000000000000000000000000000000]",
        "BilateralProof: Grant MINTER RISK_ADMIN RELAY_CALLER to deployer for bilateral async proof"
      ],
      "transaction": {
        "from": "0x36a83a4450744f4f9988c9bc46cc556ba5bfd2df",
        "to": "0xd8ba49b5d6e3df55b7a4424e1f6d0b3c22625220",
        "value": "0x0",
        "input": "0x7d5e81e200000000000000000000000000000000000000000000000000000000000000800000000000000000000000000000000000000000000000000000000000000100000000000000000000000000000000000000000000000000000000000000018000000000000000000000000000000000000000000000000000000000000003e00000000000000000000000000000000000000000000000000000000000000003000000000000000000000000c7f5871c0223ee42a858b54a679364c92c8cb0e8000000000000000000000000c7f5871c0223ee42a858b54a679364c92c8cb0e8000000000000000000000000c7f5871c0223ee42a858b54a679364c92c8cb0e8000000000000000000000000000000000000000000000000000000000000000300000000000000000000000000000000000000000000000000000000000000000000000000000000000000000000000000000000000000000000000000000000000000000000000000000000000000000000000000000000000000000000000000000000000000000000000000000000000000000000000000000000000000030000000000000000000000000000000000000000000000000000000000000060000000000000000000000000000000000000000000000000000000000000010000000000000000000000000000000000000000000000000000000000000001a0000000000000000000000000000000000000000000000000000000000000006425c471a0000000000000000000000000000000000000000000000000000000000000000400000000000000000000000036a83a4450744f4f9988c9bc46cc556ba5bfd2df000000000000000000000000000000000000000000000000000000000000000000000000000000000000000000000000000000000000000000000000000000000000000000000000000000000000000000000000000000000000006425c471a0000000000000000000000000000000000000000000000000000000000000000200000000000000000000000036a83a4450744f4f9988c9bc46cc556ba5bfd2df000000000000000000000000000000000000000000000000000000000000000000000000000000000000000000000000000000000000000000000000000000000000000000000000000000000000000000000000000000000000006425c471a0000000000000000000000000000000000000000000000000000000000000000900000000000000000000000036a83a4450744f4f9988c9bc46cc556ba5bfd2df000000000000000000000000000000000000000000000000000000000000000000000000000000000000000000000000000000000000000000000000000000000000000000000000000000000000000000000000000000000000005a42696c61746572616c50726f6f663a204772616e74204d494e544552205249534b5f41444d494e2052454c41595f43414c4c455220746f206465706c6f79657220666f722062696c61746572616c206173796e632070726f6f66000000000000",
        "nonce": "0x146",
        "chainId": "0x190f1b41"
      },
      "additionalContracts": [],
      "isFixedGasLimit": false
    },
    {
      "hash": "0x64d3797ae031f72adbe308008e4a57270dd1d7fb669b2ff4c917fb08cb82b190",
      "transactionType": "CALL",
      "contractName": null,
      "contractAddress": "0xd8ba49b5d6e3df55b7a4424e1f6d0b3c22625220",
      "function": "castVote(uint256,uint8)",
      "arguments": [
        "65748334394818902984350256264140996959607911138926057360207042591040499261456",
        "1"
      ],
      "transaction": {
        "from": "0x36a83a4450744f4f9988c9bc46cc556ba5bfd2df",
        "to": "0xd8ba49b5d6e3df55b7a4424e1f6d0b3c22625220",
        "value": "0x0",
        "input": "0x56781388915c3d0f58df3995923b49ac3fc60a6ca72359cecefb491e0b5de05d536ea0100000000000000000000000000000000000000000000000000000000000000001",
        "nonce": "0x147",
        "chainId": "0x190f1b41"
      },
      "additionalContracts": [],
      "isFixedGasLimit": false
    }
  ],
  "receipts": [
    {
      "status": "0x1",
      "cumulativeGasUsed": "0x0",
      "logs": [
        {
          "address": "0x9d6d874413c72284514d5511a810dceedab75a11",
          "topics": [
            "0x3134e8a2e6d97e929a7e54011ea5485d7d196dd5f0ba4d4ef95803e8e3fc257f",
            "0x00000000000000000000000036a83a4450744f4f9988c9bc46cc556ba5bfd2df",
            "0x0000000000000000000000000000000000000000000000000000000000000000",
            "0x00000000000000000000000036a83a4450744f4f9988c9bc46cc556ba5bfd2df"
          ],
          "data": "0x",
          "blockHash": "0x579d76b0ad8f10bd95e19e2a3f378e270177de742e8f21dd0c7df9f2b6b6313a",
          "blockNumber": "0x647894",
          "transactionHash": "0x79a18e031475158a1a9ca89e8ceda452226ecdbaa16259166e07d4f8a357c2c7",
          "transactionIndex": "0x2",
          "logIndex": "0x5",
          "removed": false
        },
        {
          "address": "0x9d6d874413c72284514d5511a810dceedab75a11",
          "topics": [
            "0xdec2bacdd2f05b59de34da9b523dff8be42e5e38e818c82fdb0bae774387a724",
            "0x00000000000000000000000036a83a4450744f4f9988c9bc46cc556ba5bfd2df"
          ],
          "data": "0x000000000000000000000000000000000000000000000000000000000000000000000000000000000000000000000000000000000000d3c21bcecceda1000000",
          "blockHash": "0x579d76b0ad8f10bd95e19e2a3f378e270177de742e8f21dd0c7df9f2b6b6313a",
          "blockNumber": "0x647894",
          "transactionHash": "0x79a18e031475158a1a9ca89e8ceda452226ecdbaa16259166e07d4f8a357c2c7",
          "transactionIndex": "0x2",
          "logIndex": "0x6",
          "removed": false
        }
      ],
      "logsBloom": "0x00000000000000000000000000000000000020000000000000000000000000000000000000000200000010000000000000020000000000001000000000400000000000000000000000000000000000000000000000000000000000000000000000000000020000000040000000000800000000000000000000000000000000000000000000000000000000000000000000000000000000000000000100000000040000000000000000000000000000000080000000000000000000000000000000000000000000000000000000000000000000000000000000000040000020000000000000000000000000000000000000000000000000000000000001000000",
      "type": "0x0",
      "transactionHash": "0x79a18e031475158a1a9ca89e8ceda452226ecdbaa16259166e07d4f8a357c2c7",
      "transactionIndex": "0x2",
      "blockHash": "0x579d76b0ad8f10bd95e19e2a3f378e270177de742e8f21dd0c7df9f2b6b6313a",
      "blockNumber": "0x647894",
      "gasUsed": "0xf888",
      "effectiveGasPrice": "0xe8d4a51000",
      "from": "0x36a83a4450744f4f9988c9bc46cc556ba5bfd2df",
      "to": "0x9d6d874413c72284514d5511a810dceedab75a11",
      "contractAddress": null
    },
    {
      "status": "0x1",
      "cumulativeGasUsed": "0x0",
      "logs": [
        {
          "address": "0x88197981ba747f3f3e5615302c9e94d6d8c570e9",
          "topics": [
            "0xddf252ad1be2c89b69c2b068fc378daa952ba7f163c4a11628f55a4df523b3ef",
            "0x0000000000000000000000000000000000000000000000000000000000000000",
            "0x000000000000000000000000c6dc173de67ff347c864d4f26a96c5e725099394"
          ],
          "data": "0x0000000000000000000000000000000000000000000000001bc16d674ec80000",
          "blockHash": "0x46aa9d6ff7f4e1aca3f6d7da290bd9349185d16f1311362666d2361bd07b3f24",
          "blockNumber": "0x6478a0",
          "transactionHash": "0x6abdb0c6172aa16138b09c27b0576d38acfb71e7b1c2ed9c8d8d1040b044962c",
          "transactionIndex": "0x2",
          "logIndex": "0x7",
          "removed": false
        },
        {
          "address": "0x88197981ba747f3f3e5615302c9e94d6d8c570e9",
          "topics": [
            "0x4700c1726b4198077cd40320a32c45265a1910521eb0ef713dd1d8412413d7fc",
            "0x000000000000000000000000c6dc173de67ff347c864d4f26a96c5e725099394"
          ],
          "data": "0x0000000000000000000000000000000000000000000000001bc16d674ec80000",
          "blockHash": "0x46aa9d6ff7f4e1aca3f6d7da290bd9349185d16f1311362666d2361bd07b3f24",
          "blockNumber": "0x6478a0",
          "transactionHash": "0x6abdb0c6172aa16138b09c27b0576d38acfb71e7b1c2ed9c8d8d1040b044962c",
          "transactionIndex": "0x2",
          "logIndex": "0x8",
          "removed": false
        },
        {
          "address": "0x88197981ba747f3f3e5615302c9e94d6d8c570e9",
          "topics": [
            "0x8c5be1e5ebec7d5bd14f71427d1e84f3dd0314c0f7b2291e5b200ac8c7c3b925",
            "0x000000000000000000000000c6dc173de67ff347c864d4f26a96c5e725099394",
            "0x00000000000000000000000074924a4502f666023510ed21ae6e27bc47ee6485"
          ],
          "data": "0x0000000000000000000000000000000000000000000000001bc16d674ec80000",
          "blockHash": "0x46aa9d6ff7f4e1aca3f6d7da290bd9349185d16f1311362666d2361bd07b3f24",
          "blockNumber": "0x6478a0",
          "transactionHash": "0x6abdb0c6172aa16138b09c27b0576d38acfb71e7b1c2ed9c8d8d1040b044962c",
          "transactionIndex": "0x2",
          "logIndex": "0x9",
          "removed": false
        },
        {
          "address": "0x88197981ba747f3f3e5615302c9e94d6d8c570e9",
          "topics": [
            "0xddf252ad1be2c89b69c2b068fc378daa952ba7f163c4a11628f55a4df523b3ef",
            "0x000000000000000000000000c6dc173de67ff347c864d4f26a96c5e725099394",
            "0x00000000000000000000000074924a4502f666023510ed21ae6e27bc47ee6485"
          ],
          "data": "0x0000000000000000000000000000000000000000000000001bc16d674ec80000",
          "blockHash": "0x46aa9d6ff7f4e1aca3f6d7da290bd9349185d16f1311362666d2361bd07b3f24",
          "blockNumber": "0x6478a0",
          "transactionHash": "0x6abdb0c6172aa16138b09c27b0576d38acfb71e7b1c2ed9c8d8d1040b044962c",
          "transactionIndex": "0x2",
          "logIndex": "0xa",
          "removed": false
        },
        {
          "address": "0x74924a4502f666023510ed21ae6e27bc47ee6485",
          "topics": [
            "0x3b04f593fa2fe63bcf8f1edd464dfd21124f3a53a11aecb27fcef01e129a0e2a",
            "0x00000000000000000000000036a83a4450744f4f9988c9bc46cc556ba5bfd2df",
            "0x266edf0bbc4d8f966b8890ca1a46d31dde87088258c1334a25810c2421419ed2"
          ],
          "data": "0x0000000000000000000000000000000000000000000000001bc16d674ec80000",
          "blockHash": "0x46aa9d6ff7f4e1aca3f6d7da290bd9349185d16f1311362666d2361bd07b3f24",
          "blockNumber": "0x6478a0",
          "transactionHash": "0x6abdb0c6172aa16138b09c27b0576d38acfb71e7b1c2ed9c8d8d1040b044962c",
          "transactionIndex": "0x2",
          "logIndex": "0xb",
          "removed": false
        },
        {
          "address": "0xc6dc173de67ff347c864d4f26a96c5e725099394",
          "topics": [
            "0x225996f57ae32a89660e867a96ec7abc869264d4169f6a2cdee5fdb55e1390b7",
            "0x00000000000000000000000036a83a4450744f4f9988c9bc46cc556ba5bfd2df"
          ],
          "data": "0x0000000000000000000000000000000000000000000000001bc16d674ec80000",
          "blockHash": "0x46aa9d6ff7f4e1aca3f6d7da290bd9349185d16f1311362666d2361bd07b3f24",
          "blockNumber": "0x6478a0",
          "transactionHash": "0x6abdb0c6172aa16138b09c27b0576d38acfb71e7b1c2ed9c8d8d1040b044962c",
          "transactionIndex": "0x2",
          "logIndex": "0xc",
          "removed": false
        }
      ],
      "logsBloom": "0x00000000001008020000000000000000000008000000000000000000000000000000800000000000000000000080000000000000000000000000000000200000000000000000000000008008000800000000000000000000000000000000000000000000020008000000000040000800010000000000000000100010110000000001000000000000000000000000000200000000000000008000000100000000020000000000002000000000100000000000000000000000000000000000000000002002000000008000000000000000000800000000000000200048000020001010000100000000000000000000000000000000000000000000040001000000",
      "type": "0x0",
      "transactionHash": "0x6abdb0c6172aa16138b09c27b0576d38acfb71e7b1c2ed9c8d8d1040b044962c",
      "transactionIndex": "0x2",
      "blockHash": "0x46aa9d6ff7f4e1aca3f6d7da290bd9349185d16f1311362666d2361bd07b3f24",
      "blockNumber": "0x6478a0",
      "gasUsed": "0x1a41d",
      "effectiveGasPrice": "0xe8d4a51000",
      "from": "0x36a83a4450744f4f9988c9bc46cc556ba5bfd2df",
      "to": "0xc6dc173de67ff347c864d4f26a96c5e725099394",
      "contractAddress": null
    },
    {
      "status": "0x1",
      "cumulativeGasUsed": "0x0",
      "logs": [
        {
          "address": "0xd8ba49b5d6e3df55b7a4424e1f6d0b3c22625220",
          "topics": [
            "0x7d84a6263ae0d98d3329bd7b46bb4e8d6f98cd35a7adb45c274c8b7fd5ebd5e0"
          ],
          "data": "0x915c3d0f58df3995923b49ac3fc60a6ca72359cecefb491e0b5de05d536ea01000000000000000000000000036a83a4450744f4f9988c9bc46cc556ba5bfd2df000000000000000000000000000000000000000000000000000000000000012000000000000000000000000000000000000000000000000000000000000001a0000000000000000000000000000000000000000000000000000000000000022000000000000000000000000000000000000000000000000000000000000003000000000000000000000000000000000000000000000000000000000069bc1db10000000000000000000000000000000000000000000000000000000069bc1edd00000000000000000000000000000000000000000000000000000000000005600000000000000000000000000000000000000000000000000000000000000003000000000000000000000000c7f5871c0223ee42a858b54a679364c92c8cb0e8000000000000000000000000c7f5871c0223ee42a858b54a679364c92c8cb0e8000000000000000000000000c7f5871c0223ee42a858b54a679364c92c8cb0e8000000000000000000000000000000000000000000000000000000000000000300000000000000000000000000000000000000000000000000000000000000000000000000000000000000000000000000000000000000000000000000000000000000000000000000000000000000000000000000000000000000000000000000000000000000000000000000000000000000000000000000000000000000030000000000000000000000000000000000000000000000000000000000000060000000000000000000000000000000000000000000000000000000000000008000000000000000000000000000000000000000000000000000000000000000a000000000000000000000000000000000000000000000000000000000000000000000000000000000000000000000000000000000000000000000000000000000000000000000000000000000000000000000000000000000000000000000000000000000000000000000000000000000000000000000000000000000000000030000000000000000000000000000000000000000000000000000000000000060000000000000000000000000000000000000000000000000000000000000010000000000000000000000000000000000000000000000000000000000000001a0000000000000000000000000000000000000000000000000000000000000006425c471a0000000000000000000000000000000000000000000000000000000000000000400000000000000000000000036a83a4450744f4f9988c9bc46cc556ba5bfd2df000000000000000000000000000000000000000000000000000000000000000000000000000000000000000000000000000000000000000000000000000000000000000000000000000000000000000000000000000000000000006425c471a0000000000000000000000000000000000000000000000000000000000000000200000000000000000000000036a83a4450744f4f9988c9bc46cc556ba5bfd2df000000000000000000000000000000000000000000000000000000000000000000000000000000000000000000000000000000000000000000000000000000000000000000000000000000000000000000000000000000000000006425c471a0000000000000000000000000000000000000000000000000000000000000000900000000000000000000000036a83a4450744f4f9988c9bc46cc556ba5bfd2df000000000000000000000000000000000000000000000000000000000000000000000000000000000000000000000000000000000000000000000000000000000000000000000000000000000000000000000000000000000000005a42696c61746572616c50726f6f663a204772616e74204d494e544552205249534b5f41444d494e2052454c41595f43414c4c455220746f206465706c6f79657220666f722062696c61746572616c206173796e632070726f6f66000000000000",
          "blockHash": "0x66038133f6b9d806b037e5b681545f12980180ca6727b8606558f8502c1fb531",
          "blockNumber": "0x6478a1",
          "transactionHash": "0x805c24cd10ec4bcff744df20b1d9caf49d0d2382666f4186bcb23af29ed1f550",
          "transactionIndex": "0x3",
          "logIndex": "0xe",
          "removed": false
        }
      ],
      "logsBloom": "0x00000000000000000000000000000000000000000000000000000000000800000000000000000000000000000000000000000000000000000000000000000000000000000002000000000000000000000000000000000000000000000000000000000000000000000000000000080000000000000000000000000000000000000000000000000000000000000000000000000000000000000000000000000000080000000000000000000000000000000000000000000000000000000000000200000000000000000000000000000000000000000000000000000000000000000000000000000000000000000000000000000000000000000002000000000000",
      "type": "0x0",
      "transactionHash": "0x805c24cd10ec4bcff744df20b1d9caf49d0d2382666f4186bcb23af29ed1f550",
      "transactionIndex": "0x3",
      "blockHash": "0x66038133f6b9d806b037e5b681545f12980180ca6727b8606558f8502c1fb531",
      "blockNumber": "0x6478a1",
      "gasUsed": "0x6c8b",
      "effectiveGasPrice": "0xe8d4a51000",
      "from": "0x36a83a4450744f4f9988c9bc46cc556ba5bfd2df",
      "to": "0xd8ba49b5d6e3df55b7a4424e1f6d0b3c22625220",
      "contractAddress": null
    }
  ],
  "libraries": [],
  "pending": [],
  "returns": {},
  "timestamp": 1773936057908,
  "chain": 420420417,
  "commit": "54e3007"
}