{
  "transactions": [
    {
      "hash": "0xf9c27ed9661e2350a9198798783894ef6370d988a771c086b5bcc05e110d8cc9",
      "transactionType": "CALL",
      "contractName": null,
      "contractAddress": "0x04f5ec4aaeda80263615a7fe40ea260aa690dc14",
      "function": "castVote(uint256,uint8)",
      "arguments": [
        "58913409065226835914295317906611801378772693372841702757101895303584902731012",
        "1"
      ],
      "transaction": {
        "from": "0x36a83a4450744f4f9988c9bc46cc556ba5bfd2df",
        "to": "0x04f5ec4aaeda80263615a7fe40ea260aa690dc14",
        "gas": "0x6b9d1",
        "value": "0x0",
        "input": "0x56781388823fced0a085584d57548cdedcaaee23a71d6ff0bbb68d6a11f9c046efd6d5040000000000000000000000000000000000000000000000000000000000000001",
        "nonce": "0x199",
        "chainId": "0x190f1b41"
      },
      "additionalContracts": [],
      "isFixedGasLimit": false
    }
  ],
  "receipts": [
    {
      "status": "0x1",
      "cumulativeGasUsed": "0x0",
      "logs": [
        {
          "address": "0x04f5ec4aaeda80263615a7fe40ea260aa690dc14",
          "topics": [
            "0xb8e138887d0aa13bab447e82de9d5c1777041ecd21ca36ba824ff1e6c07ddda4",
            "0x00000000000000000000000036a83a4450744f4f9988c9bc46cc556ba5bfd2df"
          ],
          "data": "0x823fced0a085584d57548cdedcaaee23a71d6ff0bbb68d6a11f9c046efd6d504000000000000000000000000000000000000000000000000000000000000000100000000000000000000000000000000000000000000d3c21bcecceda100000000000000000000000000000000000000000000000000000000000000000000800000000000000000000000000000000000000000000000000000000000000000",
          "blockHash": "0x38e3aad23315b91e156b7e985763d788887ec7e1f627e4b800dcb423bd12957b",
          "blockNumber": "0x64a2a5",
          "transactionHash": "0xf9c27ed9661e2350a9198798783894ef6370d988a771c086b5bcc05e110d8cc9",
          "transactionIndex": "0x2",
          "logIndex": "0x5",
          "removed": false
        }
      ],
      "logsBloom": "0x0000a000000000000000000000000000000000000000000000000000000000000000000000000000000000000000000000000000000000000000000000000000000000000000000000000000000000000040000000000000000000000000000000000000080000000000000000000000000000000000000000000000000000000000000000000000000000040000000000000000000000000000000100010000000000000000000000000000000000000000000000000000000000000000000000000000000000000000000000000000000000000000000000000040000000000000000000000000000000000000000000000000000000000000000001000000",
      "type": "0x0",
      "transactionHash": "0xf9c27ed9661e2350a9198798783894ef6370d988a771c086b5bcc05e110d8cc9",
      "transactionIndex": "0x2",
      "blockHash": "0x38e3aad23315b91e156b7e985763d788887ec7e1f627e4b800dcb423bd12957b",
      "blockNumber": "0x64a2a5",
      "gasUsed": "0xaab6",
      "effectiveGasPrice": "0xe8d4a51000",
      "from": "0x36a83a4450744f4f9988c9bc46cc556ba5bfd2df",
      "to": "0x04f5ec4aaeda80263615a7fe40ea260aa690dc14",
      "contractAddress": null
    }
  ],
  "libraries": [],
  "pending": [],
  "returns": {},
  "timestamp": 1773961279312,
  "chain": 420420417,
  "commit": "30e8c3e"
}