{
  "transactions": [
    {
      "hash": "0x58da3cdfc88ed7f3c409cb2f5bdd00867043bd4213bee3a3809699d658a2746a",
      "transactionType": "CALL",
      "contractName": null,
      "contractAddress": "0xd8ba49b5d6e3df55b7a4424e1f6d0b3c22625220",
      "function": "execute(address[],uint256[],bytes[],bytes32)",
      "arguments": [
        "[0xc7F5871c0223eE42A858b54a679364c92C8CB0E8, 0xc7F5871c0223eE42A858b54a679364c92C8CB0E8, 0xc7F5871c0223eE42A858b54a679364c92C8CB0E8]",
        "[0, 0, 0]",
        "[0x25c471a0000000000000000000000000000000000000000000000000000000000000000400000000000000000000000036a83a4450744f4f9988c9bc46cc556ba5bfd2df0000000000000000000000000000000000000000000000000000000000000000, 0x25c471a0000000000000000000000000000000000000000000000000000000000000000200000000000000000000000036a83a4450744f4f9988c9bc46cc556ba5bfd2df0000000000000000000000000000000000000000000000000000000000000000, 0x25c471a0000000000000000000000000000000000000000000000000000000000000000900000000000000000000000036a83a4450744f4f9988c9bc46cc556ba5bfd2df0000000000000000000000000000000000000000000000000000000000000000]",
        "0x9677d3d8f9a379a28e33e2cc8b13169af9dbecaaa022a25368a86f3826af1ecf"
      ],
      "transaction": {
        "from": "0x36a83a4450744f4f9988c9bc46cc556ba5bfd2df",
        "to": "0xd8ba49b5d6e3df55b7a4424e1f6d0b3c22625220",
        "value": "0x0",
        "input": "0x2656227d0000000000000000000000000000000000000000000000000000000000000080000000000000000000000000000000000000000000000000000000000000010000000000000000000000000000000000000000000000000000000000000001809677d3d8f9a379a28e33e2cc8b13169af9dbecaaa022a25368a86f3826af1ecf0000000000000000000000000000000000000000000000000000000000000003000000000000000000000000c7f5871c0223ee42a858b54a679364c92c8cb0e8000000000000000000000000c7f5871c0223ee42a858b54a679364c92c8cb0e8000000000000000000000000c7f5871c0223ee42a858b54a679364c92c8cb0e8000000000000000000000000000000000000000000000000000000000000000300000000000000000000000000000000000000000000000000000000000000000000000000000000000000000000000000000000000000000000000000000000000000000000000000000000000000000000000000000000000000000000000000000000000000000000000000000000000000000000000000000000000000030000000000000000000000000000000000000000000000000000000000000060000000000000000000000000000000000000000000000000000000000000010000000000000000000000000000000000000000000000000000000000000001a0000000000000000000000000000000000000000000000000000000000000006425c471a0000000000000000000000000000000000000000000000000000000000000000400000000000000000000000036a83a4450744f4f9988c9bc46cc556ba5bfd2df000000000000000000000000000000000000000000000000000000000000000000000000000000000000000000000000000000000000000000000000000000000000000000000000000000000000000000000000000000000000006425c471a0000000000000000000000000000000000000000000000000000000000000000200000000000000000000000036a83a4450744f4f9988c9bc46cc556ba5bfd2df000000000000000000000000000000000000000000000000000000000000000000000000000000000000000000000000000000000000000000000000000000000000000000000000000000000000000000000000000000000000006425c471a0000000000000000000000000000000000000000000000000000000000000000900000000000000000000000036a83a4450744f4f9988c9bc46cc556ba5bfd2df000000000000000000000000000000000000000000000000000000000000000000000000000000000000000000000000000000000000000000000000",
        "nonce": "0x14a",
        "chainId": "0x190f1b41"
      },
      "additionalContracts": [],
      "isFixedGasLimit": false
    },
    {
      "hash": "0xe6e7eca523a2737dc66999fc1edf4dcc075a806a4ee658a8028d0411c5506269",
      "transactionType": "CALL",
      "contractName": null,
      "contractAddress": "0xd3945174aede4c70b4e7b4830e2043ad6c578feb",
      "function": "mint(address,uint256)",
      "arguments": [
        "0x36a83a4450744f4F9988c9Bc46cC556Ba5bFD2dF",
        "100000000000000000000000"
      ],
      "transaction": {
        "from": "0x36a83a4450744f4f9988c9bc46cc556ba5bfd2df",
        "to": "0xd3945174aede4c70b4e7b4830e2043ad6c578feb",
        "value": "0x0",
        "input": "0x40c10f1900000000000000000000000036a83a4450744f4f9988c9bc46cc556ba5bfd2df00000000000000000000000000000000000000000000152d02c7e14af6800000",
        "nonce": "0x14b",
        "chainId": "0x190f1b41"
      },
      "additionalContracts": [],
      "isFixedGasLimit": false
    },
    {
      "hash": "0x78a879ad57b8815f449c087d292a5ec2f20e4b3d43f09ad0a16c50ec2e5ce260",
      "transactionType": "CALL",
      "contractName": null,
      "contractAddress": "0xd3945174aede4c70b4e7b4830e2043ad6c578feb",
      "function": "approve(address,uint256)",
      "arguments": [
        "0x1A024F0232Bab9D6282Efbf533F11e11511d68a8",
        "50000000000000000000000"
      ],
      "transaction": {
        "from": "0x36a83a4450744f4f9988c9bc46cc556ba5bfd2df",
        "to": "0xd3945174aede4c70b4e7b4830e2043ad6c578feb",
        "value": "0x0",
        "input": "0x095ea7b30000000000000000000000001a024f0232bab9d6282efbf533f11e11511d68a8000000000000000000000000000000000000000000000a968163f0a57b400000",
        "nonce": "0x14c",
        "chainId": "0x190f1b41"
      },
      "additionalContracts": [],
      "isFixedGasLimit": false
    },
    {
      "hash": "0xbed0e5cfa1d767061b56376a57d3834203f197940ed4f9764d8f1e80c42d9aaa",
      "transactionType": "CALL",
      "contractName": null,
      "contractAddress": "0x1a024f0232bab9d6282efbf533f11e11511d68a8",
      "function": "deposit(uint256,address)",
      "arguments": [
        "50000000000000000000000",
        "0x36a83a4450744f4F9988c9Bc46cC556Ba5bFD2dF"
      ],
      "transaction": {
        "from": "0x36a83a4450744f4f9988c9bc46cc556ba5bfd2df",
        "to": "0x1a024f0232bab9d6282efbf533f11e11511d68a8",
        "value": "0x0",
        "input": "0x6e553f65000000000000000000000000000000000000000000000a968163f0a57b40000000000000000000000000000036a83a4450744f4f9988c9bc46cc556ba5bfd2df",
        "nonce": "0x14d",
        "chainId": "0x190f1b41"
      },
      "additionalContracts": [],
      "isFixedGasLimit": false
    },
    {
      "hash": "0x4b37a75218aac0bcccdb96f5eea7d0218b907299eb15f960f3aab3897af2aeda",
      "transactionType": "CALL",
      "contractName": null,
      "contractAddress": "0xf751cca3d4db1c4f461ed0556b394906dd2d6c4a",
      "function": "setCircuitBreaker(uint256,uint256,uint256)",
      "arguments": [
        "1000000000000000000",
        "10000000000000000000000",
        "10000"
      ],
      "transaction": {
        "from": "0x36a83a4450744f4f9988c9bc46cc556ba5bfd2df",
        "to": "0xf751cca3d4db1c4f461ed0556b394906dd2d6c4a",
        "value": "0x0",
        "input": "0x5e4f890c0000000000000000000000000000000000000000000000000de0b6b3a764000000000000000000000000000000000000000000000000021e19e0c9bab24000000000000000000000000000000000000000000000000000000000000000002710",
        "nonce": "0x14e",
        "chainId": "0x190f1b41"
      },
      "additionalContracts": [],
      "isFixedGasLimit": false
    },
    {
      "hash": "0x5d3ef207cbe6f67a0e23fb81ba380569204838962812f7e54cfac1e88a85151f",
      "transactionType": "CALL",
      "contractName": null,
      "contractAddress": "0xf751cca3d4db1c4f461ed0556b394906dd2d6c4a",
      "function": "setPrice(uint256)",
      "arguments": [
        "1000000000000000000000"
      ],
      "transaction": {
        "from": "0x36a83a4450744f4f9988c9bc46cc556ba5bfd2df",
        "to": "0xf751cca3d4db1c4f461ed0556b394906dd2d6c4a",
        "value": "0x0",
        "input": "0x91b7f5ed00000000000000000000000000000000000000000000003635c9adc5dea00000",
        "nonce": "0x14f",
        "chainId": "0x190f1b41"
      },
      "additionalContracts": [],
      "isFixedGasLimit": false
    },
    {
      "hash": "0x4d5c7fe466de88e0312ba23f02cb4609fb32a9b2e745d65bf03ce34deb547c11",
      "transactionType": "CALL",
      "contractName": null,
      "contractAddress": "0xd3945174aede4c70b4e7b4830e2043ad6c578feb",
      "function": "approve(address,uint256)",
      "arguments": [
        "0x74924a4502f666023510ED21Ae6E27bC47eE6485",
        "115792089237316195423570985008687907853269984665640564039457584007913129639935"
      ],
      "transaction": {
        "from": "0x36a83a4450744f4f9988c9bc46cc556ba5bfd2df",
        "to": "0xd3945174aede4c70b4e7b4830e2043ad6c578feb",
        "value": "0x0",
        "input": "0x095ea7b300000000000000000000000074924a4502f666023510ed21ae6e27bc47ee6485ffffffffffffffffffffffffffffffffffffffffffffffffffffffffffffffff",
        "nonce": "0x150",
        "chainId": "0x190f1b41"
      },
      "additionalContracts": [],
      "isFixedGasLimit": false
    },
    {
      "hash": "0x4d6104a5661a88be0a7500870604f34c1a55577066ef1eaae2da8f5ae92192aa",
      "transactionType": "CALL",
      "contractName": null,
      "contractAddress": "0x74924a4502f666023510ed21ae6e27bc47ee6485",
      "function": "borrow(uint256)",
      "arguments": [
        "1000000000000000000000"
      ],
      "transaction": {
        "from": "0x36a83a4450744f4f9988c9bc46cc556ba5bfd2df",
        "to": "0x74924a4502f666023510ed21ae6e27bc47ee6485",
        "value": "0x0",
        "input": "0xc5ebeaec00000000000000000000000000000000000000000000003635c9adc5dea00000",
        "nonce": "0x151",
        "chainId": "0x190f1b41"
      },
      "additionalContracts": [],
      "isFixedGasLimit": false
    },
    {
      "hash": "0x479f3d8cc8620e784ed02628c483e35da944af79955db3c598eb67e688862ea2",
      "transactionType": "CALL",
      "contractName": null,
      "contractAddress": "0x3471f542f66603a1899947fe5849a612f0a7f465",
      "function": "setPolicy(bytes32,uint256)",
      "arguments": [
        "0x531661e8ada3fe2ee9240662f248fe35c9d24c0358419596dce9519fa2c8a408",
        "6000"
      ],
      "transaction": {
        "from": "0x36a83a4450744f4f9988c9bc46cc556ba5bfd2df",
        "to": "0x3471f542f66603a1899947fe5849a612f0a7f465",
        "value": "0x0",
        "input": "0xfac45f6f531661e8ada3fe2ee9240662f248fe35c9d24c0358419596dce9519fa2c8a4080000000000000000000000000000000000000000000000000000000000001770",
        "nonce": "0x152",
        "chainId": "0x190f1b41"
      },
      "additionalContracts": [],
      "isFixedGasLimit": false
    },
    {
      "hash": "0xf0e8583a893766070943b29930414206ad90a55799f05bf581ffdd1e865cc933",
      "transactionType": "CALL",
      "contractName": null,
      "contractAddress": "0xf751cca3d4db1c4f461ed0556b394906dd2d6c4a",
      "function": "setPrice(uint256)",
      "arguments": [
        "550000000000000000000"
      ],
      "transaction": {
        "from": "0x36a83a4450744f4f9988c9bc46cc556ba5bfd2df",
        "to": "0xf751cca3d4db1c4f461ed0556b394906dd2d6c4a",
        "value": "0x0",
        "input": "0x91b7f5ed00000000000000000000000000000000000000000000001dd0c885f9a0d80000",
        "nonce": "0x153",
        "chainId": "0x190f1b41"
      },
      "additionalContracts": [],
      "isFixedGasLimit": false
    },
    {
      "hash": "0xa1ad2ca7c7ada4cee6daa13e11866ae56ec8bc7b57b7a302c7837c39f2083b03",
      "transactionType": "CALL",
      "contractName": null,
      "contractAddress": "0x74924a4502f666023510ed21ae6e27bc47ee6485",
      "function": "liquidate(address,uint256)",
      "arguments": [
        "0x36a83a4450744f4F9988c9Bc46cC556Ba5bFD2dF",
        "115792089237316195423570985008687907853269984665640564039457584007913129639935"
      ],
      "transaction": {
        "from": "0x36a83a4450744f4f9988c9bc46cc556ba5bfd2df",
        "to": "0x74924a4502f666023510ed21ae6e27bc47ee6485",
        "value": "0x0",
        "input": "0xbcbaf48700000000000000000000000036a83a4450744f4f9988c9bc46cc556ba5bfd2dfffffffffffffffffffffffffffffffffffffffffffffffffffffffffffffffff",
        "nonce": "0x154",
        "chainId": "0x190f1b41"
      },
      "additionalContracts": [],
      "isFixedGasLimit": false
    },
    {
      "hash": "0xb5eeb3530a9968a7c062e346771da5f6246128fb546daf3d8383b496ac167499",
      "transactionType": "CALL",
      "contractName": null,
      "contractAddress": "0x6df5e3694976fd46df67b1e6a7bde85b39271719",
      "function": "receiveReceipt(bytes32,bytes)",
      "arguments": [
        "0xf393acd43052b79143eaedbaf47dff7a441a3a0127ef4f2437f4e323ed30878a",
        "0x0000000000000000000000000000000000000000000000000000000000000020000000000000000000000000000000000000000000000000000000000000002562696c61746572616c2d70726f6f662d6c69717569646174696f6e2d636f6e6669726d6564000000000000000000000000000000000000000000000000000000"
      ],
      "transaction": {
        "from": "0x36a83a4450744f4f9988c9bc46cc556ba5bfd2df",
        "to": "0x6df5e3694976fd46df67b1e6a7bde85b39271719",
        "value": "0x0",
        "input": "0x139f973cf393acd43052b79143eaedbaf47dff7a441a3a0127ef4f2437f4e323ed30878a000000000000000000000000000000000000000000000000000000000000004000000000000000000000000000000000000000000000000000000000000000800000000000000000000000000000000000000000000000000000000000000020000000000000000000000000000000000000000000000000000000000000002562696c61746572616c2d70726f6f662d6c69717569646174696f6e2d636f6e6669726d6564000000000000000000000000000000000000000000000000000000",
        "nonce": "0x155",
        "chainId": "0x190f1b41"
      },
      "additionalContracts": [],
      "isFixedGasLimit": false
    },
    {
      "hash": null,
      "transactionType": "CALL",
      "contractName": null,
      "contractAddress": "0x6df5e3694976fd46df67b1e6a7bde85b39271719",
      "function": "receiveReceipt(bytes32,bytes)",
      "arguments": [
        "0xf393acd43052b79143eaedbaf47dff7a441a3a0127ef4f2437f4e323ed30878a",
        "0x0000000000000000000000000000000000000000000000000000000000000020000000000000000000000000000000000000000000000000000000000000002562696c61746572616c2d70726f6f662d6c69717569646174696f6e2d636f6e6669726d6564000000000000000000000000000000000000000000000000000000"
      ],
      "transaction": {
        "from": "0x36a83a4450744f4f9988c9bc46cc556ba5bfd2df",
        "to": "0x6df5e3694976fd46df67b1e6a7bde85b39271719",
        "value": "0x0",
        "input": "0x139f973cf393acd43052b79143eaedbaf47dff7a441a3a0127ef4f2437f4e323ed30878a000000000000000000000000000000000000000000000000000000000000004000000000000000000000000000000000000000000000000000000000000000800000000000000000000000000000000000000000000000000000000000000020000000000000000000000000000000000000000000000000000000000000002562696c61746572616c2d70726f6f662d6c69717569646174696f6e2d636f6e6669726d6564000000000000000000000000000000000000000000000000000000",
        "nonce": "0x156",
        "chainId": "0x190f1b41"
      },
      "additionalContracts": [],
      "isFixedGasLimit": false
    }
  ],
  "receipts": [
    {
      "status": "0x1",
      "cumulativeGasUsed": "0x0",
      "logs": [
        {
          "address": "0xc7f5871c0223ee42a858b54a679364c92c8cb0e8",
          "topics": [
            "0xf98448b987f1428e0e230e1f3c6e2ce15b5693eaf31827fbd0b1ec4b424ae7cf",
            "0x0000000000000000000000000000000000000000000000000000000000000004",
            "0x00000000000000000000000036a83a4450744f4f9988c9bc46cc556ba5bfd2df"
          ],
          "data": "0x00000000000000000000000000000000000000000000000000000000000000000000000000000000000000000000000000000000000000000000000069bc20740000000000000000000000000000000000000000000000000000000000000001",
          "blockHash": "0x91747abe27725407079c909e78c80dcfb72d27cf404443b754d6e23d435f28cb",
          "blockNumber": "0x6479ab",
          "transactionHash": "0x58da3cdfc88ed7f3c409cb2f5bdd00867043bd4213bee3a3809699d658a2746a",
          "transactionIndex": "0x2",
          "logIndex": "0x5",
          "removed": false
        },
        {
          "address": "0x9e1a91042bad90b73d4d35e798d140c83e0d45d5",
          "topics": [
            "0xc2617efa69bab66782fa219543714338489c4e9e178271560a91b82c3f612b58",
            "0x3b9720087d150362b5704268cfb36d570af7c913c2875fce62e8c0e0139771bb",
            "0x0000000000000000000000000000000000000000000000000000000000000000"
          ],
          "data": "0x000000000000000000000000c7f5871c0223ee42a858b54a679364c92c8cb0e800000000000000000000000000000000000000000000000000000000000000000000000000000000000000000000000000000000000000000000000000000060000000000000000000000000000000000000000000000000000000000000006425c471a0000000000000000000000000000000000000000000000000000000000000000400000000000000000000000036a83a4450744f4f9988c9bc46cc556ba5bfd2df000000000000000000000000000000000000000000000000000000000000000000000000000000000000000000000000000000000000000000000000",
          "blockHash": "0x91747abe27725407079c909e78c80dcfb72d27cf404443b754d6e23d435f28cb",
          "blockNumber": "0x6479ab",
          "transactionHash": "0x58da3cdfc88ed7f3c409cb2f5bdd00867043bd4213bee3a3809699d658a2746a",
          "transactionIndex": "0x2",
          "logIndex": "0x6",
          "removed": false
        },
        {
          "address": "0xc7f5871c0223ee42a858b54a679364c92c8cb0e8",
          "topics": [
            "0xf98448b987f1428e0e230e1f3c6e2ce15b5693eaf31827fbd0b1ec4b424ae7cf",
            "0x0000000000000000000000000000000000000000000000000000000000000002",
            "0x00000000000000000000000036a83a4450744f4f9988c9bc46cc556ba5bfd2df"
          ],
          "data": "0x00000000000000000000000000000000000000000000000000000000000000000000000000000000000000000000000000000000000000000000000069bc20740000000000000000000000000000000000000000000000000000000000000001",
          "blockHash": "0x91747abe27725407079c909e78c80dcfb72d27cf404443b754d6e23d435f28cb",
          "blockNumber": "0x6479ab",
          "transactionHash": "0x58da3cdfc88ed7f3c409cb2f5bdd00867043bd4213bee3a3809699d658a2746a",
          "transactionIndex": "0x2",
          "logIndex": "0x7",
          "removed": false
        },
        {
          "address": "0x9e1a91042bad90b73d4d35e798d140c83e0d45d5",
          "topics": [
            "0xc2617efa69bab66782fa219543714338489c4e9e178271560a91b82c3f612b58",
            "0x3b9720087d150362b5704268cfb36d570af7c913c2875fce62e8c0e0139771bb",
            "0x0000000000000000000000000000000000000000000000000000000000000001"
          ],
          "data": "0x000000000000000000000000c7f5871c0223ee42a858b54a679364c92c8cb0e800000000000000000000000000000000000000000000000000000000000000000000000000000000000000000000000000000000000000000000000000000060000000000000000000000000000000000000000000000000000000000000006425c471a0000000000000000000000000000000000000000000000000000000000000000200000000000000000000000036a83a4450744f4f9988c9bc46cc556ba5bfd2df000000000000000000000000000000000000000000000000000000000000000000000000000000000000000000000000000000000000000000000000",
          "blockHash": "0x91747abe27725407079c909e78c80dcfb72d27cf404443b754d6e23d435f28cb",
          "blockNumber": "0x6479ab",
          "transactionHash": "0x58da3cdfc88ed7f3c409cb2f5bdd00867043bd4213bee3a3809699d658a2746a",
          "transactionIndex": "0x2",
          "logIndex": "0x8",
          "removed": false
        },
        {
          "address": "0xc7f5871c0223ee42a858b54a679364c92c8cb0e8",
          "topics": [
            "0xf98448b987f1428e0e230e1f3c6e2ce15b5693eaf31827fbd0b1ec4b424ae7cf",
            "0x0000000000000000000000000000000000000000000000000000000000000009",
            "0x00000000000000000000000036a83a4450744f4f9988c9bc46cc556ba5bfd2df"
          ],
          "data": "0x00000000000000000000000000000000000000000000000000000000000000000000000000000000000000000000000000000000000000000000000069bc20740000000000000000000000000000000000000000000000000000000000000001",
          "blockHash": "0x91747abe27725407079c909e78c80dcfb72d27cf404443b754d6e23d435f28cb",
          "blockNumber": "0x6479ab",
          "transactionHash": "0x58da3cdfc88ed7f3c409cb2f5bdd00867043bd4213bee3a3809699d658a2746a",
          "transactionIndex": "0x2",
          "logIndex": "0x9",
          "removed": false
        },
        {
          "address": "0x9e1a91042bad90b73d4d35e798d140c83e0d45d5",
          "topics": [
            "0xc2617efa69bab66782fa219543714338489c4e9e178271560a91b82c3f612b58",
            "0x3b9720087d150362b5704268cfb36d570af7c913c2875fce62e8c0e0139771bb",
            "0x0000000000000000000000000000000000000000000000000000000000000002"
          ],
          "data": "0x000000000000000000000000c7f5871c0223ee42a858b54a679364c92c8cb0e800000000000000000000000000000000000000000000000000000000000000000000000000000000000000000000000000000000000000000000000000000060000000000000000000000000000000000000000000000000000000000000006425c471a0000000000000000000000000000000000000000000000000000000000000000900000000000000000000000036a83a4450744f4f9988c9bc46cc556ba5bfd2df000000000000000000000000000000000000000000000000000000000000000000000000000000000000000000000000000000000000000000000000",
          "blockHash": "0x91747abe27725407079c909e78c80dcfb72d27cf404443b754d6e23d435f28cb",
          "blockNumber": "0x6479ab",
          "transactionHash": "0x58da3cdfc88ed7f3c409cb2f5bdd00867043bd4213bee3a3809699d658a2746a",
          "transactionIndex": "0x2",
          "logIndex": "0xa",
          "removed": false
        },
        {
          "address": "0xd8ba49b5d6e3df55b7a4424e1f6d0b3c22625220",
          "topics": [
            "0x712ae1383f79ac853f8d882153778e0260ef8f03b504e2866e0593e04d2b291f"
          ],
          "data": "0x915c3d0f58df3995923b49ac3fc60a6ca72359cecefb491e0b5de05d536ea010",
          "blockHash": "0x91747abe27725407079c909e78c80dcfb72d27cf404443b754d6e23d435f28cb",
          "blockNumber": "0x6479ab",
          "transactionHash": "0x58da3cdfc88ed7f3c409cb2f5bdd00867043bd4213bee3a3809699d658a2746a",
          "transactionIndex": "0x2",
          "logIndex": "0xb",
          "removed": false
        }
      ],
      "logsBloom": "0x04000000000000000000000000000000000000000000000000000000000800040000000000000000000000000000000000000000000800000000000000240000010000000000000000000000000000000000004000040000000000000000002008000000020000000000000000080800000000000000000000000000000000000400000000000000000000000000000008001000100000000000000100000000000000000020010000002100000200000000000000000008002020000000000000000000000000080000000000000000000000008000000000000040000060000400000000000000000800000000000000000000008040000002000001800000",
      "type": "0x0",
      "transactionHash": "0x58da3cdfc88ed7f3c409cb2f5bdd00867043bd4213bee3a3809699d658a2746a",
      "transactionIndex": "0x2",
      "blockHash": "0x91747abe27725407079c909e78c80dcfb72d27cf404443b754d6e23d435f28cb",
      "blockNumber": "0x6479ab",
      "gasUsed": "0xc9c4",
      "effectiveGasPrice": "0xe8d4a51000",
      "from": "0x36a83a4450744f4f9988c9bc46cc556ba5bfd2df",
      "to": "0xd8ba49b5d6e3df55b7a4424e1f6d0b3c22625220",
      "contractAddress": null
    },
    {
      "status": "0x1",
      "cumulativeGasUsed": "0x0",
      "logs": [
        {
          "address": "0xd3945174aede4c70b4e7b4830e2043ad6c578feb",
          "topics": [
            "0xddf252ad1be2c89b69c2b068fc378daa952ba7f163c4a11628f55a4df523b3ef",
            "0x0000000000000000000000000000000000000000000000000000000000000000",
            "0x00000000000000000000000036a83a4450744f4f9988c9bc46cc556ba5bfd2df"
          ],
          "data": "0x00000000000000000000000000000000000000000000152d02c7e14af6800000",
          "blockHash": "0xc74594d002935fb78ef80dd74b89697242a6f10ec9ce0208e1ec912b515cd9cb",
          "blockNumber": "0x6479ac",
          "transactionHash": "0xe6e7eca523a2737dc66999fc1edf4dcc075a806a4ee658a8028d0411c5506269",
          "transactionIndex": "0x3",
          "logIndex": "0xf",
          "removed": false
        }
      ],
      "logsBloom": "0x00000000000000000000000000000000000000000000000000000000000000000000000000000000000000000000000000000000000000000000000000000000000000000000000000000008000000000000000000000000000000000000000000000000020000000000000000000800000000000000000000000010000000000000000000000000000000000000000000000000000000000000000100000000000000000000000000000000000000000000000000000000000040000000000000000002000000000000000000000000000000000000000000000040000020001000000000000000000000000080000000000000000000000000000001000000",
      "type": "0x0",
      "transactionHash": "0xe6e7eca523a2737dc66999fc1edf4dcc075a806a4ee658a8028d0411c5506269",
      "transactionIndex": "0x3",
      "blockHash": "0xc74594d002935fb78ef80dd74b89697242a6f10ec9ce0208e1ec912b515cd9cb",
      "blockNumber": "0x6479ac",
      "gasUsed": "0xa8bf",
      "effectiveGasPrice": "0xe8d4a51000",
      "from": "0x36a83a4450744f4f9988c9bc46cc556ba5bfd2df",
      "to": "0xd3945174aede4c70b4e7b4830e2043ad6c578feb",
      "contractAddress": null
    },
    {
      "status": "0x1",
      "cumulativeGasUsed": "0x0",
      "logs": [
        {
          "address": "0xd3945174aede4c70b4e7b4830e2043ad6c578feb",
          "topics": [
            "0x8c5be1e5ebec7d5bd14f71427d1e84f3dd0314c0f7b2291e5b200ac8c7c3b925",
            "0x00000000000000000000000036a83a4450744f4f9988c9bc46cc556ba5bfd2df",
            "0x0000000000000000000000001a024f0232bab9d6282efbf533f11e11511d68a8"
          ],
          "data": "0x000000000000000000000000000000000000000000000a968163f0a57b400000",
          "blockHash": "0x52b52737be137800736f89df42f90abd8617230e23f817a9e48929ba872cc0a8",
          "blockNumber": "0x6479ad",
          "transactionHash": "0x78a879ad57b8815f449c087d292a5ec2f20e4b3d43f09ad0a16c50ec2e5ce260",
          "transactionIndex": "0x3",
          "logIndex": "0x10",
          "removed": false
        }
      ],
      "logsBloom": "0x00000000000000000000000000000000000000000000000000000000000000000000000000000000000000000000000000000000000000000000000000200000000000000000000000000000000000000000010000000000000000000100000000000000000000000000000000000000000000000000000000000000000000000000000000000000000000000000000000000000000000000000000100000000020000000000000000000000000000000000000000000000000040000000000000000000000000000000000000000000000000000000000000100040000000001010000000000000000000000080000000000000000000000000000001000000",
      "type": "0x0",
      "transactionHash": "0x78a879ad57b8815f449c087d292a5ec2f20e4b3d43f09ad0a16c50ec2e5ce260",
      "transactionIndex": "0x3",
      "blockHash": "0x52b52737be137800736f89df42f90abd8617230e23f817a9e48929ba872cc0a8",
      "blockNumber": "0x6479ad",
      "gasUsed": "0x5573",
      "effectiveGasPrice": "0xe8d4a51000",
      "from": "0x36a83a4450744f4f9988c9bc46cc556ba5bfd2df",
      "to": "0xd3945174aede4c70b4e7b4830e2043ad6c578feb",
      "contractAddress": null
    },
    {
      "status": "0x1",
      "cumulativeGasUsed": "0x0",
      "logs": [
        {
          "address": "0xd3945174aede4c70b4e7b4830e2043ad6c578feb",
          "topics": [
            "0xddf252ad1be2c89b69c2b068fc378daa952ba7f163c4a11628f55a4df523b3ef",
            "0x00000000000000000000000036a83a4450744f4f9988c9bc46cc556ba5bfd2df",
            "0x0000000000000000000000001a024f0232bab9d6282efbf533f11e11511d68a8"
          ],
          "data": "0x000000000000000000000000000000000000000000000a968163f0a57b400000",
          "blockHash": "0xbbb703473a7dc88b51f4cff937a5807ae4c28d53d63641beff7fe0f3cabd0484",
          "blockNumber": "0x6479ae",
          "transactionHash": "0xbed0e5cfa1d767061b56376a57d3834203f197940ed4f9764d8f1e80c42d9aaa",
          "transactionIndex": "0x2",
          "logIndex": "0x5",
          "removed": false
        },
        {
          "address": "0x1a024f0232bab9d6282efbf533f11e11511d68a8",
          "topics": [
            "0xddf252ad1be2c89b69c2b068fc378daa952ba7f163c4a11628f55a4df523b3ef",
            "0x0000000000000000000000000000000000000000000000000000000000000000",
            "0x00000000000000000000000036a83a4450744f4f9988c9bc46cc556ba5bfd2df"
          ],
          "data": "0x000000000000000000000000000000000000000000000a968163f0a57b400000",
          "blockHash": "0xbbb703473a7dc88b51f4cff937a5807ae4c28d53d63641beff7fe0f3cabd0484",
          "blockNumber": "0x6479ae",
          "transactionHash": "0xbed0e5cfa1d767061b56376a57d3834203f197940ed4f9764d8f1e80c42d9aaa",
          "transactionIndex": "0x2",
          "logIndex": "0x6",
          "removed": false
        },
        {
          "address": "0x1a024f0232bab9d6282efbf533f11e11511d68a8",
          "topics": [
            "0xdcbc1c05240f31ff3ad067ef1ee35ce4997762752e3a095284754544f4c709d7",
            "0x00000000000000000000000036a83a4450744f4f9988c9bc46cc556ba5bfd2df",
            "0x00000000000000000000000036a83a4450744f4f9988c9bc46cc556ba5bfd2df"
          ],
          "data": "0x000000000000000000000000000000000000000000000a968163f0a57b400000000000000000000000000000000000000000000000000a968163f0a57b400000",
          "blockHash": "0xbbb703473a7dc88b51f4cff937a5807ae4c28d53d63641beff7fe0f3cabd0484",
          "blockNumber": "0x6479ae",
          "transactionHash": "0xbed0e5cfa1d767061b56376a57d3834203f197940ed4f9764d8f1e80c42d9aaa",
          "transactionIndex": "0x2",
          "logIndex": "0x7",
          "removed": false
        }
      ],
      "logsBloom": "0x00000000000000000000000000000000000000000000000000000000000000000000000000000000000000000000000000000000000000000000000000000000000000400000000000000008000000000000010000000000000000000100000000000000020000000000000000000800000400000004000000000010000000000000000000001000000000000000000000000000000000000000000100000000000000000000000000000000000000000000000000000000000040000000000000000002000000000000000000000000000002000008000000100040000020001000000000000000000000000080000000000000000000000000000001000000",
      "type": "0x0",
      "transactionHash": "0xbed0e5cfa1d767061b56376a57d3834203f197940ed4f9764d8f1e80c42d9aaa",
      "transactionIndex": "0x2",
      "blockHash": "0xbbb703473a7dc88b51f4cff937a5807ae4c28d53d63641beff7fe0f3cabd0484",
      "blockNumber": "0x6479ae",
      "gasUsed": "0xb040",
      "effectiveGasPrice": "0xe8d4a51000",
      "from": "0x36a83a4450744f4f9988c9bc46cc556ba5bfd2df",
      "to": "0x1a024f0232bab9d6282efbf533f11e11511d68a8",
      "contractAddress": null
    },
    {
      "status": "0x1",
      "cumulativeGasUsed": "0x0",
      "logs": [
        {
          "address": "0xf751cca3d4db1c4f461ed0556b394906dd2d6c4a",
          "topics": [
            "0x595b82fe980573accd93caff3e8d93c76f180511c046ac80606e42e4f7750392"
          ],
          "data": "0x0000000000000000000000000000000000000000000000000de0b6b3a764000000000000000000000000000000000000000000000000021e19e0c9bab240000000000000000000000000000000000000000000000000000000000000000027100000000000000000000000000000000000000000000000000000000000000002",
          "blockHash": "0x8b3265d740ea0357fafc77cd8e819540aac66a5b6225dc896e41d32e13aac275",
          "blockNumber": "0x6479af",
          "transactionHash": "0x4b37a75218aac0bcccdb96f5eea7d0218b907299eb15f960f3aab3897af2aeda",
          "transactionIndex": "0x2",
          "logIndex": "0x5",
          "removed": false
        }
      ],
      "logsBloom": "0x00000000000000000000000000000000000000000000000000000000000000000000000000000000000000000000000000200000000000000000000000000000000000000000000000000000000000000000000000000000000000000000000000000000000000001000000000000000000000000000000000000000000000000000000000000000000000000000000000000000000002000000000000080001000000000000000000000000000000000000000000000000000000000000000000000000000000000000000080000000000000000000000000000000000000000000000000000000000000000000000000000000000000000000000000000000",
      "type": "0x0",
      "transactionHash": "0x4b37a75218aac0bcccdb96f5eea7d0218b907299eb15f960f3aab3897af2aeda",
      "transactionIndex": "0x2",
      "blockHash": "0x8b3265d740ea0357fafc77cd8e819540aac66a5b6225dc896e41d32e13aac275",
      "blockNumber": "0x6479af",
      "gasUsed": "0x987",
      "effectiveGasPrice": "0xe8d4a51000",
      "from": "0x36a83a4450744f4f9988c9bc46cc556ba5bfd2df",
      "to": "0xf751cca3d4db1c4f461ed0556b394906dd2d6c4a",
      "contractAddress": null
    },
    {
      "status": "0x1",
      "cumulativeGasUsed": "0x0",
      "logs": [
        {
          "address": "0xf751cca3d4db1c4f461ed0556b394906dd2d6c4a",
          "topics": [
            "0x15819dd2fd9f6418b142e798d08a18d0bf06ea368f4480b7b0d3f75bd966bc48"
          ],
          "data": "0x00000000000000000000000000000000000000000000003635c9adc5dea000000000000000000000000000000000000000000000000000000000000069bc20800000000000000000000000000000000000000000000000000000000000000003",
          "blockHash": "0xeedda8a52732f2ab53e63b55699f04536d6fd0e1419646fa961d7ff7908ca12b",
          "blockNumber": "0x6479b0",
          "transactionHash": "0x5d3ef207cbe6f67a0e23fb81ba380569204838962812f7e54cfac1e88a85151f",
          "transactionIndex": "0x2",
          "logIndex": "0x5",
          "removed": false
        }
      ],
      "logsBloom": "0x00000000000400000000000000000000000000000000000000000000000000000000000000000000000000000000000000000000000000000000000000000000000000000000000000000000000000000000000000000000000000000000000000000000200000001000000000000000000000000000000000000000000000000000000000000000000000000000000000000000000000000000000000080000000000000000000000000000000000000000000000000000000000000000000000000000000000000000000080000000000000000002000000000000000000000000000000000000000000000000000000000000000000000000000000000000",
      "type": "0x0",
      "transactionHash": "0x5d3ef207cbe6f67a0e23fb81ba380569204838962812f7e54cfac1e88a85151f",
      "transactionIndex": "0x2",
      "blockHash": "0xeedda8a52732f2ab53e63b55699f04536d6fd0e1419646fa961d7ff7908ca12b",
      "blockNumber": "0x6479b0",
      "gasUsed": "0x89b",
      "effectiveGasPrice": "0xe8d4a51000",
      "from": "0x36a83a4450744f4f9988c9bc46cc556ba5bfd2df",
      "to": "0xf751cca3d4db1c4f461ed0556b394906dd2d6c4a",
      "contractAddress": null
    },
    {
      "status": "0x1",
      "cumulativeGasUsed": "0x0",
      "logs": [
        {
          "address": "0xd3945174aede4c70b4e7b4830e2043ad6c578feb",
          "topics": [
            "0x8c5be1e5ebec7d5bd14f71427d1e84f3dd0314c0f7b2291e5b200ac8c7c3b925",
            "0x00000000000000000000000036a83a4450744f4f9988c9bc46cc556ba5bfd2df",
            "0x00000000000000000000000074924a4502f666023510ed21ae6e27bc47ee6485"
          ],
          "data": "0xffffffffffffffffffffffffffffffffffffffffffffffffffffffffffffffff",
          "blockHash": "0xef19cee0b72844cf6712a7b2b5e4ef16c60de55141b59396f404b24c57b3ca12",
          "blockNumber": "0x6479b1",
          "transactionHash": "0x4d5c7fe466de88e0312ba23f02cb4609fb32a9b2e745d65bf03ce34deb547c11",
          "transactionIndex": "0x2",
          "logIndex": "0x5",
          "removed": false
        }
      ],
      "logsBloom": "0x00000000000000000000000000000000000000000000000000000000000000000000800000000000000000000000000000000000000000000000000000200000000000000000000000000000000000000000000000000000000000000000000000000000000000000000000000000000000000000000000000000000000000000000000000000000000000000000000000000000000000000000000100000000020000000000002000000000000000000000000000000000000040000000000000000000000000000000000000000000000000000000000000000048000000001010000000000000000000000080000000000000000000000000000001000000",
      "type": "0x0",
      "transactionHash": "0x4d5c7fe466de88e0312ba23f02cb4609fb32a9b2e745d65bf03ce34deb547c11",
      "transactionIndex": "0x2",
      "blockHash": "0xef19cee0b72844cf6712a7b2b5e4ef16c60de55141b59396f404b24c57b3ca12",
      "blockNumber": "0x6479b1",
      "gasUsed": "0x5573",
      "effectiveGasPrice": "0xe8d4a51000",
      "from": "0x36a83a4450744f4f9988c9bc46cc556ba5bfd2df",
      "to": "0xd3945174aede4c70b4e7b4830e2043ad6c578feb",
      "contractAddress": null
    },
    {
      "status": "0x1",
      "cumulativeGasUsed": "0x0",
      "logs": [
        {
          "address": "0x01e56920355f1936c28a2ea627d027e35eccbca6",
          "topics": [
            "0x93ac32598f9f2bd75e15b7ceb9ee170c420c706623666588039b12443600004b",
            "0x021b731557f842f5051ebb15dbf9ca205b6c25cb53a08a65d5a120c64935620b"
          ],
          "data": "0x0000000000000000000000000000000000000000000000000000000000000020000000000000000000000000000000000000000000000000000000000000000e63726f73732d766d2d6d61746368000000000000000000000000000000000000",
          "blockHash": "0x0ebfcab84c6167ea56b4108a7e58042acef59ad3218f8b2e85359e850f24bb0c",
          "blockNumber": "0x6479b2",
          "transactionHash": "0x4d6104a5661a88be0a7500870604f34c1a55577066ef1eaae2da8f5ae92192aa",
          "transactionIndex": "0x2",
          "logIndex": "0x5",
          "removed": false
        },
        {
          "address": "0x01e56920355f1936c28a2ea627d027e35eccbca6",
          "topics": [
            "0x227a9d26aa2a408c418953053eeb2f93a5f308a61856433ea5ec0aaf224bbab7",
            "0x021b731557f842f5051ebb15dbf9ca205b6c25cb53a08a65d5a120c64935620b",
            "0x3e75293e699ea826b62c87dac0dea29e243bbbabf8c08962813fbf138e6035ef",
            "0x09959d22f045740a72f4edca2fc67b51340d0acf111c4df57190fd3cf17f5c91"
          ],
          "data": "0x000000000000000000000000000000000000000000000000000000000000000300000000000000000000000074924a4502f666023510ed21ae6e27bc47ee6485ad452674336f3b9de43396ea47df0b7e86763162590fe7dd2b994bde2dc639fb21658ca079d645f70eac19572ea18d1bd68ff75a00d661034572625b95bd3a3700000000000000000000000074924a4502f666023510ed21ae6e27bc47ee6485",
          "blockHash": "0x0ebfcab84c6167ea56b4108a7e58042acef59ad3218f8b2e85359e850f24bb0c",
          "blockNumber": "0x6479b2",
          "transactionHash": "0x4d6104a5661a88be0a7500870604f34c1a55577066ef1eaae2da8f5ae92192aa",
          "transactionIndex": "0x2",
          "logIndex": "0x6",
          "removed": false
        },
        {
          "address": "0xd3945174aede4c70b4e7b4830e2043ad6c578feb",
          "topics": [
            "0xddf252ad1be2c89b69c2b068fc378daa952ba7f163c4a11628f55a4df523b3ef",
            "0x0000000000000000000000001a024f0232bab9d6282efbf533f11e11511d68a8",
            "0x00000000000000000000000036a83a4450744f4f9988c9bc46cc556ba5bfd2df"
          ],
          "data": "0x00000000000000000000000000000000000000000000003635c9adc5dea00000",
          "blockHash": "0x0ebfcab84c6167ea56b4108a7e58042acef59ad3218f8b2e85359e850f24bb0c",
          "blockNumber": "0x6479b2",
          "transactionHash": "0x4d6104a5661a88be0a7500870604f34c1a55577066ef1eaae2da8f5ae92192aa",
          "transactionIndex": "0x2",
          "logIndex": "0x7",
          "removed": false
        },
        {
          "address": "0x1a024f0232bab9d6282efbf533f11e11511d68a8",
          "topics": [
            "0x953585d34e25ee0d058ccd2e8c7d5a786b91c1359e1694fc1c6c93467d76c2e5",
            "0x00000000000000000000000036a83a4450744f4f9988c9bc46cc556ba5bfd2df"
          ],
          "data": "0x00000000000000000000000000000000000000000000003635c9adc5dea00000",
          "blockHash": "0x0ebfcab84c6167ea56b4108a7e58042acef59ad3218f8b2e85359e850f24bb0c",
          "blockNumber": "0x6479b2",
          "transactionHash": "0x4d6104a5661a88be0a7500870604f34c1a55577066ef1eaae2da8f5ae92192aa",
          "transactionIndex": "0x2",
          "logIndex": "0x8",
          "removed": false
        },
        {
          "address": "0x74924a4502f666023510ed21ae6e27bc47ee6485",
          "topics": [
            "0xe76ef10dcf3c8c75e95375a4727fa360bad4d3ab1d0a60ec501c487a98d7784a",
            "0x00000000000000000000000036a83a4450744f4f9988c9bc46cc556ba5bfd2df",
            "0x98c582497c45526a7a90b2b415b515f5fea403c0ff5fd5c02535e510277487a9"
          ],
          "data": "0x00000000000000000000000000000000000000000000003635c9adc5dea0000000000000000000000000000000000000000000000000000000000000000000dc",
          "blockHash": "0x0ebfcab84c6167ea56b4108a7e58042acef59ad3218f8b2e85359e850f24bb0c",
          "blockNumber": "0x6479b2",
          "transactionHash": "0x4d6104a5661a88be0a7500870604f34c1a55577066ef1eaae2da8f5ae92192aa",
          "transactionIndex": "0x2",
          "logIndex": "0x9",
          "removed": false
        }
      ],
      "logsBloom": "0x00000000000000000000000010000000000000000000000000020000008000010008000000000000000000610000000000000000000000000000400100000000000002000000100000000008000000000000010000000000000000001500000000000200000000000000000040000000000402000000000000100010000000000000000000001000000000000400000000000000002000000000000102800000000000000000000000000000000000000000004000000000000040000000200000000002000000000000000000000000000402000000000000100040000000001000000000000000000000080084000000000004000000000000080001000000",
      "type": "0x0",
      "transactionHash": "0x4d6104a5661a88be0a7500870604f34c1a55577066ef1eaae2da8f5ae92192aa",
      "transactionIndex": "0x2",
      "blockHash": "0x0ebfcab84c6167ea56b4108a7e58042acef59ad3218f8b2e85359e850f24bb0c",
      "blockNumber": "0x6479b2",
      "gasUsed": "0x48b48",
      "effectiveGasPrice": "0xe8d4a51000",
      "from": "0x36a83a4450744f4f9988c9bc46cc556ba5bfd2df",
      "to": "0x74924a4502f666023510ed21ae6e27bc47ee6485",
      "contractAddress": null
    },
    {
      "status": "0x1",
      "cumulativeGasUsed": "0x0",
      "logs": [
        {
          "address": "0x3471f542f66603a1899947fe5849a612f0a7f465",
          "topics": [
            "0xe6810688b2fcd676aafbf6086199c0cfbf1716bd240c04935a35870102b4713f",
            "0x531661e8ada3fe2ee9240662f248fe35c9d24c0358419596dce9519fa2c8a408"
          ],
          "data": "0x0000000000000000000000000000000000000000000000000000000000001770",
          "blockHash": "0xc6027a99e078c0e6d9a9a9380ca732485d97a71fe9db65fadf3bab61c7cb3578",
          "blockNumber": "0x6479b3",
          "transactionHash": "0x479f3d8cc8620e784ed02628c483e35da944af79955db3c598eb67e688862ea2",
          "transactionIndex": "0x2",
          "logIndex": "0x5",
          "removed": false
        }
      ],
      "logsBloom": "0x00000400000000200000000000000000000000000400000000000000000000000000000000000000000000000000000000000000000000000000000400000000000000000000000000000000000000000040000000000000000000000000100000000000000000000000000000000000000000000200000000000000000000000000000000000000000000000000000000000000000000000000000000000000000000000000020000000000000000000000000000000000000000000000000000000000000000000000000000000000000000000000000000000000000000000000000000000000000000000000000000000000000000000002000000000000",
      "type": "0x0",
      "transactionHash": "0x479f3d8cc8620e784ed02628c483e35da944af79955db3c598eb67e688862ea2",
      "transactionIndex": "0x2",
      "blockHash": "0xc6027a99e078c0e6d9a9a9380ca732485d97a71fe9db65fadf3bab61c7cb3578",
      "blockNumber": "0x6479b3",
      "gasUsed": "0xa865",
      "effectiveGasPrice": "0xe8d4a51000",
      "from": "0x36a83a4450744f4f9988c9bc46cc556ba5bfd2df",
      "to": "0x3471f542f66603a1899947fe5849a612f0a7f465",
      "contractAddress": null
    },
    {
      "status": "0x1",
      "cumulativeGasUsed": "0x0",
      "logs": [
        {
          "address": "0xf751cca3d4db1c4f461ed0556b394906dd2d6c4a",
          "topics": [
            "0x15819dd2fd9f6418b142e798d08a18d0bf06ea368f4480b7b0d3f75bd966bc48"
          ],
          "data": "0x00000000000000000000000000000000000000000000001dd0c885f9a0d800000000000000000000000000000000000000000000000000000000000069bc20800000000000000000000000000000000000000000000000000000000000000004",
          "blockHash": "0x71442ee5097c8f319a8a8b3bb937ba8aebc49867184303e8849d421cbe1e5a28",
          "blockNumber": "0x6479b4",
          "transactionHash": "0xf0e8583a893766070943b29930414206ad90a55799f05bf581ffdd1e865cc933",
          "transactionIndex": "0x3",
          "logIndex": "0xd",
          "removed": false
        }
      ],
      "logsBloom": "0x00000000000400000000000000000000000000000000000000000000000000000000000000000000000000000000000000000000000000000000000000000000000000000000000000000000000000000000000000000000000000000000000000000000200000001000000000000000000000000000000000000000000000000000000000000000000000000000000000000000000000000000000000080000000000000000000000000000000000000000000000000000000000000000000000000000000000000000000080000000000000000002000000000000000000000000000000000000000000000000000000000000000000000000000000000000",
      "type": "0x0",
      "transactionHash": "0xf0e8583a893766070943b29930414206ad90a55799f05bf581ffdd1e865cc933",
      "transactionIndex": "0x3",
      "blockHash": "0x71442ee5097c8f319a8a8b3bb937ba8aebc49867184303e8849d421cbe1e5a28",
      "blockNumber": "0x6479b4",
      "gasUsed": "0x89b",
      "effectiveGasPrice": "0xe8d4a51000",
      "from": "0x36a83a4450744f4f9988c9bc46cc556ba5bfd2df",
      "to": "0xf751cca3d4db1c4f461ed0556b394906dd2d6c4a",
      "contractAddress": null
    },
    {
      "status": "0x1",
      "cumulativeGasUsed": "0x0",
      "logs": [
        {
          "address": "0x01e56920355f1936c28a2ea627d027e35eccbca6",
          "topics": [
            "0xc95768bcf0a0c3222f6a6b0b53efd232c5d37a29e21ac1e24e29d0c895acb374"
          ],
          "data": "0x00000000000000000000000000000000000000000000000000000000000000dc00000000000000000000000000000000000000000000000000000000000000dc000000000000000000000000000000000000000000000000000000000000177000000000000000000000000000000000000000000000000000000000000019640000000000000000000000000000000000000000000000000000000000001e780000000000000000000000000000000000000000000000000000000000001e78",
          "blockHash": "0x5bca9eaa211600c59e32945bb538701b653deae6c8c76899004c6eb12c33a863",
          "blockNumber": "0x6479b5",
          "transactionHash": "0xa1ad2ca7c7ada4cee6daa13e11866ae56ec8bc7b57b7a302c7837c39f2083b03",
          "transactionIndex": "0x3",
          "logIndex": "0xd",
          "removed": false
        },
        {
          "address": "0x01e56920355f1936c28a2ea627d027e35eccbca6",
          "topics": [
            "0x227a9d26aa2a408c418953053eeb2f93a5f308a61856433ea5ec0aaf224bbab7",
            "0x42d475510a9a62906e0949e58ad99fa7ec948ffa79105eb402624ec64002d78c",
            "0x02841c5a25f8d08f11d965f9295a29a9fb44adcf12469b5982e7e25d256fbd86",
            "0x68c5c96f5cb9fbb03ac87a79d1f4fbfb11047e204c0e675907e1769ddb106fad"
          ],
          "data": "0x000000000000000000000000000000000000000000000000000000000000000400000000000000000000000074924a4502f666023510ed21ae6e27bc47ee64854c1536d6f0b0636c3628746a463bdbb292b3c0c083a00105b1b05695e6b6558b21658ca079d645f70eac19572ea18d1bd68ff75a00d661034572625b95bd3a3700000000000000000000000074924a4502f666023510ed21ae6e27bc47ee6485",
          "blockHash": "0x5bca9eaa211600c59e32945bb538701b653deae6c8c76899004c6eb12c33a863",
          "blockNumber": "0x6479b5",
          "transactionHash": "0xa1ad2ca7c7ada4cee6daa13e11866ae56ec8bc7b57b7a302c7837c39f2083b03",
          "transactionIndex": "0x3",
          "logIndex": "0xe",
          "removed": false
        },
        {
          "address": "0xd3945174aede4c70b4e7b4830e2043ad6c578feb",
          "topics": [
            "0xddf252ad1be2c89b69c2b068fc378daa952ba7f163c4a11628f55a4df523b3ef",
            "0x00000000000000000000000036a83a4450744f4f9988c9bc46cc556ba5bfd2df",
            "0x0000000000000000000000001a024f0232bab9d6282efbf533f11e11511d68a8"
          ],
          "data": "0x00000000000000000000000000000000000000000000003635cb7e35e21c5ab0",
          "blockHash": "0x5bca9eaa211600c59e32945bb538701b653deae6c8c76899004c6eb12c33a863",
          "blockNumber": "0x6479b5",
          "transactionHash": "0xa1ad2ca7c7ada4cee6daa13e11866ae56ec8bc7b57b7a302c7837c39f2083b03",
          "transactionIndex": "0x3",
          "logIndex": "0xf",
          "removed": false
        },
        {
          "address": "0x1a024f0232bab9d6282efbf533f11e11511d68a8",
          "topics": [
            "0xbc6967a735834262f5f48ab97d87f37ed787cff38e148bd3511b08a39208a6f2"
          ],
          "data": "0x00000000000000000000000000000000000000000000003635c9adc5dea000000000000000000000000000000000000000000000000000000001d070037c5ab000000000000000000000000000000000000000000000000000002e7199f2d5de",
          "blockHash": "0x5bca9eaa211600c59e32945bb538701b653deae6c8c76899004c6eb12c33a863",
          "blockNumber": "0x6479b5",
          "transactionHash": "0xa1ad2ca7c7ada4cee6daa13e11866ae56ec8bc7b57b7a302c7837c39f2083b03",
          "transactionIndex": "0x3",
          "logIndex": "0x10",
          "removed": false
        },
        {
          "address": "0x88197981ba747f3f3e5615302c9e94d6d8c570e9",
          "topics": [
            "0xddf252ad1be2c89b69c2b068fc378daa952ba7f163c4a11628f55a4df523b3ef",
            "0x00000000000000000000000074924a4502f666023510ed21ae6e27bc47ee6485",
            "0x00000000000000000000000036a83a4450744f4f9988c9bc46cc556ba5bfd2df"
          ],
          "data": "0x0000000000000000000000000000000000000000000000001a7e74f4240402af",
          "blockHash": "0x5bca9eaa211600c59e32945bb538701b653deae6c8c76899004c6eb12c33a863",
          "blockNumber": "0x6479b5",
          "transactionHash": "0xa1ad2ca7c7ada4cee6daa13e11866ae56ec8bc7b57b7a302c7837c39f2083b03",
          "transactionIndex": "0x3",
          "logIndex": "0x11",
          "removed": false
        },
        {
          "address": "0x74924a4502f666023510ed21ae6e27bc47ee6485",
          "topics": [
            "0x8a2cbe81a0df58acce5b03fedb417d2b2054f504d8986a71a42ce10649b7155a",
            "0x00000000000000000000000036a83a4450744f4f9988c9bc46cc556ba5bfd2df",
            "0x00000000000000000000000036a83a4450744f4f9988c9bc46cc556ba5bfd2df",
            "0xca4aaead8c096b98d48fc31faba8a5022ac73bc2fc376ca98031b912384740e1"
          ],
          "data": "0x00000000000000000000000000000000000000000000003635cb7e35e21c5ab00000000000000000000000000000000000000000000000001a7e74f4240402af0000000000000000000000000000000000000000000000000000000000000000",
          "blockHash": "0x5bca9eaa211600c59e32945bb538701b653deae6c8c76899004c6eb12c33a863",
          "blockNumber": "0x6479b5",
          "transactionHash": "0xa1ad2ca7c7ada4cee6daa13e11866ae56ec8bc7b57b7a302c7837c39f2083b03",
          "transactionIndex": "0x3",
          "logIndex": "0x12",
          "removed": false
        },
        {
          "address": "0xa80eac309424fd3fa0daaf7200f5c2ab2bcb9b9a",
          "topics": [
            "0x91e01fc49e9fd1395411fef3b287056912f5b5e46fca577651b17c56cd9842e4",
            "0xd1dc45b9435dd181eb2c5f215cca1998f9b150a50b490a75c3f250f135f1c128",
            "0x0000000000000000000000003027259a3f1372da4dbce8b17bac525dc0bb9faa"
          ],
          "data": "0x000000000000000000000000000000000000000000000000000000000000002000000000000000000000000000000000000000000000000000000000000000a408c379a00000000000000000000000000000000000000000000000000000000000000020000000000000000000000000000000000000000000000000000000000000004258434d2073656e64206661696c65643a2064657374696e6174696f6e206f72206d65737361676520666f726d6174206d617920626520696e636f6d70617469626c6500000000000000000000000000000000000000000000000000000000000000000000000000000000000000000000000000000000000000000000",
          "blockHash": "0x5bca9eaa211600c59e32945bb538701b653deae6c8c76899004c6eb12c33a863",
          "blockNumber": "0x6479b5",
          "transactionHash": "0xa1ad2ca7c7ada4cee6daa13e11866ae56ec8bc7b57b7a302c7837c39f2083b03",
          "transactionIndex": "0x3",
          "logIndex": "0x13",
          "removed": false
        }
      ],
      "logsBloom": "0x00000010000001020000004000000000000000000000000000008000008000000008c0000004000000000000000000000000000010000000000000008040101000000000000048000000000800000000000001000000000000000000050000002200000000000080000000004000000001040000000000000010001000000000000000000000100200000000000000000000080000000000000000210000000000000000000020200000000000000000080002000002000000004000000020000000000200001000c1000000000000000008220000002400001000481000000010000000000000000000200000840000000000000000000000000a0001000000",
      "type": "0x0",
      "transactionHash": "0xa1ad2ca7c7ada4cee6daa13e11866ae56ec8bc7b57b7a302c7837c39f2083b03",
      "transactionIndex": "0x3",
      "blockHash": "0x5bca9eaa211600c59e32945bb538701b653deae6c8c76899004c6eb12c33a863",
      "blockNumber": "0x6479b5",
      "gasUsed": "0x35377",
      "effectiveGasPrice": "0xe8d4a51000",
      "from": "0x36a83a4450744f4f9988c9bc46cc556ba5bfd2df",
      "to": "0x74924a4502f666023510ed21ae6e27bc47ee6485",
      "contractAddress": null
    },
    {
      "status": "0x1",
      "cumulativeGasUsed": "0x0",
      "logs": [
        {
          "address": "0x6df5e3694976fd46df67b1e6a7bde85b39271719",
          "topics": [
            "0xe78322cbd7212153c8ceb7aa3cc5ad329ac3e905a7a978b4968a6586641a8a3a",
            "0xf393acd43052b79143eaedbaf47dff7a441a3a0127ef4f2437f4e323ed30878a",
            "0x00000000000000000000000036a83a4450744f4f9988c9bc46cc556ba5bfd2df"
          ],
          "data": "0x000000000000000000000000000000000000000000000000000000000000002000000000000000000000000000000000000000000000000000000000000000800000000000000000000000000000000000000000000000000000000000000020000000000000000000000000000000000000000000000000000000000000002562696c61746572616c2d70726f6f662d6c69717569646174696f6e2d636f6e6669726d6564000000000000000000000000000000000000000000000000000000",
          "blockHash": "0x97cdc527162020d9f59f2cdbe3e1664513b995c9ef8782500bdcfbf0bac30bcf",
          "blockNumber": "0x6479b6",
          "transactionHash": "0xb5eeb3530a9968a7c062e346771da5f6246128fb546daf3d8383b496ac167499",
          "transactionIndex": "0x4",
          "logIndex": "0x18",
          "removed": false
        }
      ],
      "logsBloom": "0x00000000000000000000000000000000000000000000000000000000000000000000000000000000080000000000000000000000000000000000000000000800000000000000000400000000000000000000000000000000000000000000000000000000000000000000000000000000000000000000000000000000000000000000000000000000000000000000000000000000000000000000000180000000000000000000000000000000000000010000000000000000000000000000000000000000000000000000000600000000000000000000000000000040000000000000000000000000000000000000000000000000000000000000000011100000",
      "type": "0x0",
      "transactionHash": "0xb5eeb3530a9968a7c062e346771da5f6246128fb546daf3d8383b496ac167499",
      "transactionIndex": "0x4",
      "blockHash": "0x97cdc527162020d9f59f2cdbe3e1664513b995c9ef8782500bdcfbf0bac30bcf",
      "blockNumber": "0x6479b6",
      "gasUsed": "0x5aee",
      "effectiveGasPrice": "0xe8d4a51000",
      "from": "0x36a83a4450744f4f9988c9bc46cc556ba5bfd2df",
      "to": "0x6df5e3694976fd46df67b1e6a7bde85b39271719",
      "contractAddress": null
    }
  ],
  "libraries": [],
  "pending": [],
  "returns": {},
  "timestamp": 1773936798736,
  "chain": 420420417,
  "commit": "54e3007"
}