{
  "transactions": [
    {
      "hash": "0x818dc701844d8c1eaeb4510488945c473df78eb5481499b0efe7ce0d8f398bff",
      "transactionType": "CALL",
      "contractName": null,
      "contractAddress": "0xd8ba49b5d6e3df55b7a4424e1f6d0b3c22625220",
      "function": "castVote(uint256,uint8)",
      "arguments": [
        "65748334394818902984350256264140996959607911138926057360207042591040499261456",
        "1"
      ],
      "transaction": {
        "from": "0x36a83a4450744f4f9988c9bc46cc556ba5bfd2df",
        "to": "0xd8ba49b5d6e3df55b7a4424e1f6d0b3c22625220",
        "gas": "0x6b6e3",
        "value": "0x0",
        "input": "0x56781388915c3d0f58df3995923b49ac3fc60a6ca72359cecefb491e0b5de05d536ea0100000000000000000000000000000000000000000000000000000000000000001",
        "nonce": "0x148",
        "chainId": "0x190f1b41"
      },
      "additionalContracts": [],
      "isFixedGasLimit": false
    }
  ],
  "receipts": [
    {
      "status": "0x1",
      "cumulativeGasUsed": "0x0",
      "logs": [
        {
          "address": "0xd8ba49b5d6e3df55b7a4424e1f6d0b3c22625220",
          "topics": [
            "0xb8e138887d0aa13bab447e82de9d5c1777041ecd21ca36ba824ff1e6c07ddda4",
            "0x00000000000000000000000036a83a4450744f4f9988c9bc46cc556ba5bfd2df"
          ],
          "data": "0x915c3d0f58df3995923b49ac3fc60a6ca72359cecefb491e0b5de05d536ea010000000000000000000000000000000000000000000000000000000000000000100000000000000000000000000000000000000000000d3c21bcecceda100000000000000000000000000000000000000000000000000000000000000000000800000000000000000000000000000000000000000000000000000000000000000",
          "blockHash": "0x005b46a74071996085c9d97f12e3d6bb97d1785fb835236a6258c9be0e98124e",
          "blockNumber": "0x6478e7",
          "transactionHash": "0x818dc701844d8c1eaeb4510488945c473df78eb5481499b0efe7ce0d8f398bff",
          "transactionIndex": "0x2",
          "logIndex": "0x5",
          "removed": false
        }
      ],
      "logsBloom": "0x00008000000000000000000000000000000000000000000000000000000800000000000000000000000000000000000000000000000000000000000000000000000000000000000000000000000000000000000000000000000000000000000000000000080000000000000000080000000000000000000000000000000000000000000000000000000000040000000000000000000000000000000100000000000000000000000000000000000000000000000000000000000000000000000000000000000000000000000000000000000000000000000000000040000000000000000000000000000000000000000000000000000000000002000001000000",
      "type": "0x0",
      "transactionHash": "0x818dc701844d8c1eaeb4510488945c473df78eb5481499b0efe7ce0d8f398bff",
      "transactionIndex": "0x2",
      "blockHash": "0x005b46a74071996085c9d97f12e3d6bb97d1785fb835236a6258c9be0e98124e",
      "blockNumber": "0x6478e7",
      "gasUsed": "0xaa5c",
      "effectiveGasPrice": "0xe8d4a51000",
      "from": "0x36a83a4450744f4f9988c9bc46cc556ba5bfd2df",
      "to": "0xd8ba49b5d6e3df55b7a4424e1f6d0b3c22625220",
      "contractAddress": null
    }
  ],
  "libraries": [],
  "pending": [],
  "returns": {},
  "timestamp": 1773936204865,
  "chain": 420420417,
  "commit": "54e3007"
}