{
  "transactions": [
    {
      "hash": "0x6419c5abc2de5656775ec0a4f6f0b823172180f73a0acb91d8648c7810a87919",
      "transactionType": "CALL",
      "contractName": null,
      "contractAddress": "0xd8ba49b5d6e3df55b7a4424e1f6d0b3c22625220",
      "function": "queue(address[],uint256[],bytes[],bytes32)",
      "arguments": [
        "[0xc7F5871c0223eE42A858b54a679364c92C8CB0E8, 0xc7F5871c0223eE42A858b54a679364c92C8CB0E8, 0xc7F5871c0223eE42A858b54a679364c92C8CB0E8]",
        "[0, 0, 0]",
        "[0x25c471a0000000000000000000000000000000000000000000000000000000000000000400000000000000000000000036a83a4450744f4f9988c9bc46cc556ba5bfd2df0000000000000000000000000000000000000000000000000000000000000000, 0x25c471a0000000000000000000000000000000000000000000000000000000000000000200000000000000000000000036a83a4450744f4f9988c9bc46cc556ba5bfd2df0000000000000000000000000000000000000000000000000000000000000000, 0x25c471a0000000000000000000000000000000000000000000000000000000000000000900000000000000000000000036a83a4450744f4f9988c9bc46cc556ba5bfd2df0000000000000000000000000000000000000000000000000000000000000000]",
        "0x9677d3d8f9a379a28e33e2cc8b13169af9dbecaaa022a25368a86f3826af1ecf"
      ],
      "transaction": {
        "from": "0x36a83a4450744f4f9988c9bc46cc556ba5bfd2df",
        "to": "0xd8ba49b5d6e3df55b7a4424e1f6d0b3c22625220",
        "gas": "0xe33be",
        "value": "0x0",
        "input": "0x160cbed70000000000000000000000000000000000000000000000000000000000000080000000000000000000000000000000000000000000000000000000000000010000000000000000000000000000000000000000000000000000000000000001809677d3d8f9a379a28e33e2cc8b13169af9dbecaaa022a25368a86f3826af1ecf0000000000000000000000000000000000000000000000000000000000000003000000000000000000000000c7f5871c0223ee42a858b54a679364c92c8cb0e8000000000000000000000000c7f5871c0223ee42a858b54a679364c92c8cb0e8000000000000000000000000c7f5871c0223ee42a858b54a679364c92c8cb0e8000000000000000000000000000000000000000000000000000000000000000300000000000000000000000000000000000000000000000000000000000000000000000000000000000000000000000000000000000000000000000000000000000000000000000000000000000000000000000000000000000000000000000000000000000000000000000000000000000000000000000000000000000000030000000000000000000000000000000000000000000000000000000000000060000000000000000000000000000000000000000000000000000000000000010000000000000000000000000000000000000000000000000000000000000001a0000000000000000000000000000000000000000000000000000000000000006425c471a0000000000000000000000000000000000000000000000000000000000000000400000000000000000000000036a83a4450744f4f9988c9bc46cc556ba5bfd2df000000000000000000000000000000000000000000000000000000000000000000000000000000000000000000000000000000000000000000000000000000000000000000000000000000000000000000000000000000000000006425c471a0000000000000000000000000000000000000000000000000000000000000000200000000000000000000000036a83a4450744f4f9988c9bc46cc556ba5bfd2df000000000000000000000000000000000000000000000000000000000000000000000000000000000000000000000000000000000000000000000000000000000000000000000000000000000000000000000000000000000000006425c471a0000000000000000000000000000000000000000000000000000000000000000900000000000000000000000036a83a4450744f4f9988c9bc46cc556ba5bfd2df000000000000000000000000000000000000000000000000000000000000000000000000000000000000000000000000000000000000000000000000",
        "nonce": "0x149",
        "chainId": "0x190f1b41"
      },
      "additionalContracts": [],
      "isFixedGasLimit": false
    }
  ],
  "receipts": [
    {
      "status": "0x1",
      "cumulativeGasUsed": "0x0",
      "logs": [
        {
          "address": "0x9e1a91042bad90b73d4d35e798d140c83e0d45d5",
          "topics": [
            "0x4cf4410cc57040e44862ef0f45f3dd5a5e02db8eb8add648d4b0e236f1d07dca",
            "0x3b9720087d150362b5704268cfb36d570af7c913c2875fce62e8c0e0139771bb",
            "0x0000000000000000000000000000000000000000000000000000000000000000"
          ],
          "data": "0x000000000000000000000000c7f5871c0223ee42a858b54a679364c92c8cb0e8000000000000000000000000000000000000000000000000000000000000000000000000000000000000000000000000000000000000000000000000000000a00000000000000000000000000000000000000000000000000000000000000000000000000000000000000000000000000000000000000000000000000000003c000000000000000000000000000000000000000000000000000000000000006425c471a0000000000000000000000000000000000000000000000000000000000000000400000000000000000000000036a83a4450744f4f9988c9bc46cc556ba5bfd2df000000000000000000000000000000000000000000000000000000000000000000000000000000000000000000000000000000000000000000000000",
          "blockHash": "0x6cda182e5833da974bf1eb4fbec1db99c5350dddc314017e55db601899b00529",
          "blockNumber": "0x647956",
          "transactionHash": "0x6419c5abc2de5656775ec0a4f6f0b823172180f73a0acb91d8648c7810a87919",
          "transactionIndex": "0x2",
          "logIndex": "0x5",
          "removed": false
        },
        {
          "address": "0x9e1a91042bad90b73d4d35e798d140c83e0d45d5",
          "topics": [
            "0x4cf4410cc57040e44862ef0f45f3dd5a5e02db8eb8add648d4b0e236f1d07dca",
            "0x3b9720087d150362b5704268cfb36d570af7c913c2875fce62e8c0e0139771bb",
            "0x0000000000000000000000000000000000000000000000000000000000000001"
          ],
          "data": "0x000000000000000000000000c7f5871c0223ee42a858b54a679364c92c8cb0e8000000000000000000000000000000000000000000000000000000000000000000000000000000000000000000000000000000000000000000000000000000a00000000000000000000000000000000000000000000000000000000000000000000000000000000000000000000000000000000000000000000000000000003c000000000000000000000000000000000000000000000000000000000000006425c471a0000000000000000000000000000000000000000000000000000000000000000200000000000000000000000036a83a4450744f4f9988c9bc46cc556ba5bfd2df000000000000000000000000000000000000000000000000000000000000000000000000000000000000000000000000000000000000000000000000",
          "blockHash": "0x6cda182e5833da974bf1eb4fbec1db99c5350dddc314017e55db601899b00529",
          "blockNumber": "0x647956",
          "transactionHash": "0x6419c5abc2de5656775ec0a4f6f0b823172180f73a0acb91d8648c7810a87919",
          "transactionIndex": "0x2",
          "logIndex": "0x6",
          "removed": false
        },
        {
          "address": "0x9e1a91042bad90b73d4d35e798d140c83e0d45d5",
          "topics": [
            "0x4cf4410cc57040e44862ef0f45f3dd5a5e02db8eb8add648d4b0e236f1d07dca",
            "0x3b9720087d150362b5704268cfb36d570af7c913c2875fce62e8c0e0139771bb",
            "0x0000000000000000000000000000000000000000000000000000000000000002"
          ],
          "data": "0x000000000000000000000000c7f5871c0223ee42a858b54a679364c92c8cb0e8000000000000000000000000000000000000000000000000000000000000000000000000000000000000000000000000000000000000000000000000000000a00000000000000000000000000000000000000000000000000000000000000000000000000000000000000000000000000000000000000000000000000000003c000000000000000000000000000000000000000000000000000000000000006425c471a0000000000000000000000000000000000000000000000000000000000000000900000000000000000000000036a83a4450744f4f9988c9bc46cc556ba5bfd2df000000000000000000000000000000000000000000000000000000000000000000000000000000000000000000000000000000000000000000000000",
          "blockHash": "0x6cda182e5833da974bf1eb4fbec1db99c5350dddc314017e55db601899b00529",
          "blockNumber": "0x647956",
          "transactionHash": "0x6419c5abc2de5656775ec0a4f6f0b823172180f73a0acb91d8648c7810a87919",
          "transactionIndex": "0x2",
          "logIndex": "0x7",
          "removed": false
        },
        {
          "address": "0x9e1a91042bad90b73d4d35e798d140c83e0d45d5",
          "topics": [
            "0x20fda5fd27a1ea7bf5b9567f143ac5470bb059374a27e8f67cb44f946f6d0387",
            "0x3b9720087d150362b5704268cfb36d570af7c913c2875fce62e8c0e0139771bb"
          ],
          "data": "0x4ecd9a6d2f40a6f73997a082947e1da6dbb9be8aa022a25368a86f3826af1ecf",
          "blockHash": "0x6cda182e5833da974bf1eb4fbec1db99c5350dddc314017e55db601899b00529",
          "blockNumber": "0x647956",
          "transactionHash": "0x6419c5abc2de5656775ec0a4f6f0b823172180f73a0acb91d8648c7810a87919",
          "transactionIndex": "0x2",
          "logIndex": "0x8",
          "removed": false
        },
        {
          "address": "0xd8ba49b5d6e3df55b7a4424e1f6d0b3c22625220",
          "topics": [
            "0x9a2e42fd6722813d69113e7d0079d3d940171428df7373df9c7f7617cfda2892"
          ],
          "data": "0x915c3d0f58df3995923b49ac3fc60a6ca72359cecefb491e0b5de05d536ea0100000000000000000000000000000000000000000000000000000000069bc1f9c",
          "blockHash": "0x6cda182e5833da974bf1eb4fbec1db99c5350dddc314017e55db601899b00529",
          "blockNumber": "0x647956",
          "transactionHash": "0x6419c5abc2de5656775ec0a4f6f0b823172180f73a0acb91d8648c7810a87919",
          "transactionIndex": "0x2",
          "logIndex": "0x9",
          "removed": false
        }
      ],
      "logsBloom": "0x04000000000000000000000040000000000000000000000000000000000800040000000000000000000000000000000100000000800000000100000000040000010000000000000000000000002000000000000000040008000000000000000000000000020000000000000000080800000080000000000000000000000000000400000000000000000000000000000000000000100000000000000000000000000000000000000000000100000200000000000000000000000000000000000000000000000000000000000000100000000000000000400000000000000060000000000000000000000000000000000000000000008040000002000000000000",
      "type": "0x0",
      "transactionHash": "0x6419c5abc2de5656775ec0a4f6f0b823172180f73a0acb91d8648c7810a87919",
      "transactionIndex": "0x2",
      "blockHash": "0x6cda182e5833da974bf1eb4fbec1db99c5350dddc314017e55db601899b00529",
      "blockNumber": "0x647956",
      "gasUsed": "0x11291",
      "effectiveGasPrice": "0xe8d4a51000",
      "from": "0x36a83a4450744f4f9988c9bc46cc556ba5bfd2df",
      "to": "0xd8ba49b5d6e3df55b7a4424e1f6d0b3c22625220",
      "contractAddress": null
    }
  ],
  "libraries": [],
  "pending": [],
  "returns": {},
  "timestamp": 1773936488572,
  "chain": 420420417,
  "commit": "54e3007"
}